{"abi":[{"type":"constructor","inputs":[],"stateMutability":"nonpayable"},{"type":"function","name":"approve","inputs":[{"name":"to","type":"address","internalType":"address"},{"name":"tokenId","type":"uint256","internalType":"uint256"}],"outputs":[],"stateMutability":"nonpayable"},{"type":"function","name":"balanceOf","inputs":[{"name":"owner","type":"address","internalType":"address"}],"outputs":[{"name":"","type":"uint256","internalType":"uint256"}],"stateMutability":"view"},{"type":"function","name":"getApproved","inputs":[{"name":"tokenId","type":"uint256","internalType":"uint256"}],"outputs":[{"name":"","type":"address","internalType":"address"}],"stateMutability":"view"},{"type":"function","name":"isApprovedForAll","inputs":[{"name":"owner","type":"address","internalType":"address"},{"name":"operator","type":"address","internalType":"address"}],"outputs":[{"name":"","type":"bool","internalType":"bool"}],"stateMutability":"view"},{"type":"function","name":"maxsupply","inputs":[],"outputs":[{"name":"","type":"uint256","internalType":"uint256"}],"stateMutability":"view"},{"type":"function","name":"name","inputs":[],"outputs":[{"name":"","type":"string","internalType":"string"}],"stateMutability":"view"},{"type":"function","name":"owner","inputs":[],"outputs":[{"name":"","type":"address","internalType":"address"}],"stateMutability":"view"},{"type":"function","name":"ownerOf","inputs":[{"name":"tokenId","type":"uint256","internalType":"uint256"}],"outputs":[{"name":"","type":"address","internalType":"address"}],"stateMutability":"view"},{"type":"function","name":"pause","inputs":[],"outputs":[],"stateMutability":"nonpayable"},{"type":"function","name":"paused","inputs":[],"outputs":[{"name":"","type":"bool","internalType":"bool"}],"stateMutability":"view"},{"type":"function","name":"publicMint","inputs":[],"outputs":[{"name":"","type":"uint256","internalType":"uint256"}],"stateMutability":"payable"},{"type":"function","name":"renounceOwnership","inputs":[],"outputs":[],"stateMutability":"nonpayable"},{"type":"function","name":"safeTransferFrom","inputs":[{"name":"from","type":"address","internalType":"address"},{"name":"to","type":"address","internalType":"address"},{"name":"tokenId","type":"uint256","internalType":"uint256"}],"outputs":[],"stateMutability":"nonpayable"},{"type":"function","name":"safeTransferFrom","inputs":[{"name":"from","type":"address","internalType":"address"},{"name":"to","type":"address","internalType":"address"},{"name":"tokenId","type":"uint256","internalType":"uint256"},{"name":"data","type":"bytes","internalType":"bytes"}],"outputs":[],"stateMutability":"nonpayable"},{"type":"function","name":"setApprovalForAll","inputs":[{"name":"operator","type":"address","internalType":"address"},{"name":"approved","type":"bool","internalType":"bool"}],"outputs":[],"stateMutability":"nonpayable"},{"type":"function","name":"supportsInterface","inputs":[{"name":"interfaceId","type":"bytes4","internalType":"bytes4"}],"outputs":[{"name":"","type":"bool","internalType":"bool"}],"stateMutability":"view"},{"type":"function","name":"symbol","inputs":[],"outputs":[{"name":"","type":"string","internalType":"string"}],"stateMutability":"view"},{"type":"function","name":"tokenByIndex","inputs":[{"name":"index","type":"uint256","internalType":"uint256"}],"outputs":[{"name":"","type":"uint256","internalType":"uint256"}],"stateMutability":"view"},{"type":"function","name":"tokenOfOwnerByIndex","inputs":[{"name":"owner","type":"address","internalType":"address"},{"name":"index","type":"uint256","internalType":"uint256"}],"outputs":[{"name":"","type":"uint256","internalType":"uint256"}],"stateMutability":"view"},{"type":"function","name":"tokenURI","inputs":[{"name":"tokenId","type":"uint256","internalType":"uint256"}],"outputs":[{"name":"","type":"string","internalType":"string"}],"stateMutability":"view"},{"type":"function","name":"totalSupply","inputs":[],"outputs":[{"name":"","type":"uint256","internalType":"uint256"}],"stateMutability":"view"},{"type":"function","name":"transferFrom","inputs":[{"name":"from","type":"address","internalType":"address"},{"name":"to","type":"address","internalType":"address"},{"name":"tokenId","type":"uint256","internalType":"uint256"}],"outputs":[],"stateMutability":"nonpayable"},{"type":"function","name":"transferOwnership","inputs":[{"name":"newOwner","type":"address","internalType":"address"}],"outputs":[],"stateMutability":"nonpayable"},{"type":"function","name":"unpause","inputs":[],"outputs":[],"stateMutability":"nonpayable"},{"type":"event","name":"Approval","inputs":[{"name":"owner","type":"address","indexed":true,"internalType":"address"},{"name":"approved","type":"address","indexed":true,"internalType":"address"},{"name":"tokenId","type":"uint256","indexed":true,"internalType":"uint256"}],"anonymous":false},{"type":"event","name":"ApprovalForAll","inputs":[{"name":"owner","type":"address","indexed":true,"internalType":"address"},{"name":"operator","type":"address","indexed":true,"internalType":"address"},{"name":"approved","type":"bool","indexed":false,"internalType":"bool"}],"anonymous":false},{"type":"event","name":"OwnershipTransferred","inputs":[{"name":"previousOwner","type":"address","indexed":true,"internalType":"address"},{"name":"newOwner","type":"address","indexed":true,"internalType":"address"}],"anonymous":false},{"type":"event","name":"Paused","inputs":[{"name":"account","type":"address","indexed":false,"internalType":"address"}],"anonymous":false},{"type":"event","name":"Transfer","inputs":[{"name":"from","type":"address","indexed":true,"internalType":"address"},{"name":"to","type":"address","indexed":true,"internalType":"address"},{"name":"tokenId","type":"uint256","indexed":true,"internalType":"uint256"}],"anonymous":false},{"type":"event","name":"Unpaused","inputs":[{"name":"account","type":"address","indexed":false,"internalType":"address"}],"anonymous":false},{"type":"error","name":"ERC721EnumerableForbiddenBatchMint","inputs":[]},{"type":"error","name":"ERC721IncorrectOwner","inputs":[{"name":"sender","type":"address","internalType":"address"},{"name":"tokenId","type":"uint256","internalType":"uint256"},{"name":"owner","type":"address","internalType":"address"}]},{"type":"error","name":"ERC721InsufficientApproval","inputs":[{"name":"operator","type":"address","internalType":"address"},{"name":"tokenId","type":"uint256","internalType":"uint256"}]},{"type":"error","name":"ERC721InvalidApprover","inputs":[{"name":"approver","type":"address","internalType":"address"}]},{"type":"error","name":"ERC721InvalidOperator","inputs":[{"name":"operator","type":"address","internalType":"address"}]},{"type":"error","name":"ERC721InvalidOwner","inputs":[{"name":"owner","type":"address","internalType":"address"}]},{"type":"error","name":"ERC721InvalidReceiver","inputs":[{"name":"receiver","type":"address","internalType":"address"}]},{"type":"error","name":"ERC721InvalidSender","inputs":[{"name":"sender","type":"address","internalType":"address"}]},{"type":"error","name":"ERC721NonexistentToken","inputs":[{"name":"tokenId","type":"uint256","internalType":"uint256"}]},{"type":"error","name":"ERC721OutOfBoundsIndex","inputs":[{"name":"owner","type":"address","internalType":"address"},{"name":"index","type":"uint256","internalType":"uint256"}]},{"type":"error","name":"EnforcedPause","inputs":[]},{"type":"error","name":"ExpectedPause","inputs":[]},{"type":"error","name":"OwnableInvalidOwner","inputs":[{"name":"owner","type":"address","internalType":"address"}]},{"type":"error","name":"OwnableUnauthorizedAccount","inputs":[{"name":"account","type":"address","internalType":"address"}]}],"bytecode":{"object":"0x608060405234801561000f575f5ffd5b50336040518060400160405280600a81526020017f77656233657263373231000000000000000000000000000000000000000000008152506040518060400160405280600381526020017f7765330000000000000000000000000000000000000000000000000000000000815250815f908161008b9190610436565b50806001908161009b9190610436565b5050505f73ffffffffffffffffffffffffffffffffffffffff168173ffffffffffffffffffffffffffffffffffffffff160361010e575f6040517f1e4fbdf70000000000000000000000000000000000000000000000000000000081526004016101059190610544565b60405180910390fd5b61011d8161012360201b60201c565b5061055d565b5f600a60019054906101000a900473ffffffffffffffffffffffffffffffffffffffff16905081600a60016101000a81548173ffffffffffffffffffffffffffffffffffffffff021916908373ffffffffffffffffffffffffffffffffffffffff1602179055508173ffffffffffffffffffffffffffffffffffffffff168173ffffffffffffffffffffffffffffffffffffffff167f8be0079c531659141344cd1fd0a4f28419497f9722a3daafe3b4186f6b6457e060405160405180910390a35050565b5f81519050919050565b7f4e487b71000000000000000000000000000000000000000000000000000000005f52604160045260245ffd5b7f4e487b71000000000000000000000000000000000000000000000000000000005f52602260045260245ffd5b5f600282049050600182168061026357607f821691505b6020821081036102765761027561021f565b5b50919050565b5f819050815f5260205f209050919050565b5f6020601f8301049050919050565b5f82821b905092915050565b5f600883026102d87fffffffffffffffffffffffffffffffffffffffffffffffffffffffffffffffff8261029d565b6102e2868361029d565b95508019841693508086168417925050509392505050565b5f819050919050565b5f819050919050565b5f61032661032161031c846102fa565b610303565b6102fa565b9050919050565b5f819050919050565b61033f8361030c565b61035361034b8261032d565b8484546102a9565b825550505050565b5f5f905090565b61036a61035b565b610375818484610336565b505050565b5f5b8281101561039b576103905f828401610362565b60018101905061037c565b505050565b601f8211156103ee57828211156103ed576103ba8161027c565b6103c38361028e565b6103cc8561028e565b60208610156103d9575f90505b8083016103e88284038261037a565b505050505b5b505050565b5f82821c905092915050565b5f61040e5f19846008026103f3565b1980831691505092915050565b5f61042683836103ff565b9150826002028217905092915050565b61043f826101e8565b67ffffffffffffffff811115610458576104576101f2565b5b610462825461024c565b61046d8282856103a0565b5f60209050601f83116001811461049e575f841561048c578287015190505b610496858261041b565b8655506104fd565b601f1984166104ac8661027c565b5f5b828110156104d3578489015182556001820191506020850194506020810190506104ae565b868310156104f057848901516104ec601f8916826103ff565b8355505b6001600288020188555050505b505050505050565b5f73ffffffffffffffffffffffffffffffffffffffff82169050919050565b5f61052e82610505565b9050919050565b61053e81610524565b82525050565b5f6020820190506105575f830184610535565b92915050565b612be08061056a5f395ff3fe60806040526004361061014a575f3560e01c80635c975abb116100b557806395d89b411161006e57806395d89b4114610460578063a22cb4651461048a578063b88d4fde146104b2578063c87b56dd146104da578063e985e9c514610516578063f2fde38b146105525761014a565b80635c975abb146103685780636352211e1461039257806370a08231146103ce578063715018a61461040a5780638456cb59146104205780638da5cb5b146104365761014a565b806326092b831161010757806326092b831461026a5780632f745c59146102885780633f4ba83a146102c457806342842e0e146102da5780634b6406d1146103025780634f6ccce71461032c5761014a565b806301ffc9a71461014e57806306fdde031461018a578063081812fc146101b4578063095ea7b3146101f057806318160ddd1461021857806323b872dd14610242575b5f5ffd5b348015610159575f5ffd5b50610174600480360381019061016f9190612284565b61057a565b60405161018191906122c9565b60405180910390f35b348015610195575f5ffd5b5061019e61058b565b6040516101ab9190612352565b60405180910390f35b3480156101bf575f5ffd5b506101da60048036038101906101d591906123a5565b61061a565b6040516101e7919061240f565b60405180910390f35b3480156101fb575f5ffd5b5061021660048036038101906102119190612452565b610635565b005b348015610223575f5ffd5b5061022c61064b565b604051610239919061249f565b60405180910390f35b34801561024d575f5ffd5b50610268600480360381019061026391906124b8565b610657565b005b610272610756565b60405161027f919061249f565b60405180910390f35b348015610293575f5ffd5b506102ae60048036038101906102a99190612452565b610815565b6040516102bb919061249f565b60405180910390f35b3480156102cf575f5ffd5b506102d86108b9565b005b3480156102e5575f5ffd5b5061030060048036038101906102fb91906124b8565b6108cb565b005b34801561030d575f5ffd5b506103166108ea565b604051610323919061249f565b60405180910390f35b348015610337575f5ffd5b50610352600480360381019061034d91906123a5565b6108f0565b60405161035f919061249f565b60405180910390f35b348015610373575f5ffd5b5061037c610962565b60405161038991906122c9565b60405180910390f35b34801561039d575f5ffd5b506103b860048036038101906103b391906123a5565b610977565b6040516103c5919061240f565b60405180910390f35b3480156103d9575f5ffd5b506103f460048036038101906103ef9190612508565b610988565b604051610401919061249f565b60405180910390f35b348015610415575f5ffd5b5061041e610a3e565b005b34801561042b575f5ffd5b50610434610a51565b005b348015610441575f5ffd5b5061044a610a63565b604051610457919061240f565b60405180910390f35b34801561046b575f5ffd5b50610474610a8c565b6040516104819190612352565b60405180910390f35b348015610495575f5ffd5b506104b060048036038101906104ab919061255d565b610b1c565b005b3480156104bd575f5ffd5b506104d860048036038101906104d391906126c7565b610b32565b005b3480156104e5575f5ffd5b5061050060048036038101906104fb91906123a5565b610b57565b60405161050d9190612352565b60405180910390f35b348015610521575f5ffd5b5061053c60048036038101906105379190612747565b610bbd565b60405161054991906122c9565b60405180910390f35b34801561055d575f5ffd5b5061057860048036038101906105739190612508565b610c4b565b005b5f61058482610ccf565b9050919050565b60605f8054610599906127b2565b80601f01602080910402602001604051908101604052809291908181526020018280546105c5906127b2565b80156106105780601f106105e757610100808354040283529160200191610610565b820191905f5260205f20905b8154815290600101906020018083116105f357829003601f168201915b5050505050905090565b5f61062482610d48565b5061062e82610dce565b9050919050565b6106478282610642610e07565b610e0e565b5050565b5f600880549050905090565b5f73ffffffffffffffffffffffffffffffffffffffff168273ffffffffffffffffffffffffffffffffffffffff16036106c7575f6040517f64a0ae920000000000000000000000000000000000000000000000000000000081526004016106be919061240f565b60405180910390fd5b5f6106da83836106d5610e07565b610e20565b90508373ffffffffffffffffffffffffffffffffffffffff168173ffffffffffffffffffffffffffffffffffffffff1614610750578382826040517f64283d7b000000000000000000000000000000000000000000000000000000008152600401610747939291906127e2565b60405180910390fd5b50505050565b5f662386f26fc1000034146107a0576040517f08c379a000000000000000000000000000000000000000000000000000000000815260040161079790612861565b60405180910390fd5b600c546107ab61064b565b106107eb576040517f08c379a00000000000000000000000000000000000000000000000000000000081526004016107e2906128c9565b60405180910390fd5b5f600b5f8154809291906107fe90612914565b91905055905061080e3382610e35565b8091505090565b5f61081f83610988565b82106108645782826040517fa57d13dc00000000000000000000000000000000000000000000000000000000815260040161085b92919061295b565b60405180910390fd5b60065f8473ffffffffffffffffffffffffffffffffffffffff1673ffffffffffffffffffffffffffffffffffffffff1681526020019081526020015f205f8381526020019081526020015f2054905092915050565b6108c1610e52565b6108c9610ed9565b565b6108e583838360405180602001604052805f815250610b32565b505050565b600c5481565b5f6108f961064b565b821061093e575f826040517fa57d13dc00000000000000000000000000000000000000000000000000000000815260040161093592919061295b565b60405180910390fd5b6008828154811061095257610951612982565b5b905f5260205f2001549050919050565b5f600a5f9054906101000a900460ff16905090565b5f61098182610d48565b9050919050565b5f5f73ffffffffffffffffffffffffffffffffffffffff168273ffffffffffffffffffffffffffffffffffffffff16036109f9575f6040517f89c62b640000000000000000000000000000000000000000000000000000000081526004016109f0919061240f565b60405180910390fd5b60035f8373ffffffffffffffffffffffffffffffffffffffff1673ffffffffffffffffffffffffffffffffffffffff1681526020019081526020015f20549050919050565b610a46610e52565b610a4f5f610f3a565b565b610a59610e52565b610a61610fff565b565b5f600a60019054906101000a900473ffffffffffffffffffffffffffffffffffffffff16905090565b606060018054610a9b906127b2565b80601f0160208091040260200160405190810160405280929190818152602001828054610ac7906127b2565b8015610b125780601f10610ae957610100808354040283529160200191610b12565b820191905f5260205f20905b815481529060010190602001808311610af557829003601f168201915b5050505050905090565b610b2e610b27610e07565b8383611061565b5050565b610b3d848484610657565b610b51610b48610e07565b8585858561123a565b50505050565b6060610b6282610d48565b505f610b6c6113e6565b90505f815111610b8a5760405180602001604052805f815250610bb5565b80610b9484611406565b604051602001610ba59291906129e9565b6040516020818303038152906040525b915050919050565b5f60055f8473ffffffffffffffffffffffffffffffffffffffff1673ffffffffffffffffffffffffffffffffffffffff1681526020019081526020015f205f8373ffffffffffffffffffffffffffffffffffffffff1673ffffffffffffffffffffffffffffffffffffffff1681526020019081526020015f205f9054906101000a900460ff16905092915050565b610c53610e52565b5f73ffffffffffffffffffffffffffffffffffffffff168173ffffffffffffffffffffffffffffffffffffffff1603610cc3575f6040517f1e4fbdf7000000000000000000000000000000000000000000000000000000008152600401610cba919061240f565b60405180910390fd5b610ccc81610f3a565b50565b5f7f780e9d63000000000000000000000000000000000000000000000000000000007bffffffffffffffffffffffffffffffffffffffffffffffffffffffff1916827bffffffffffffffffffffffffffffffffffffffffffffffffffffffff19161480610d415750610d40826114d0565b5b9050919050565b5f5f610d53836115b1565b90505f73ffffffffffffffffffffffffffffffffffffffff168173ffffffffffffffffffffffffffffffffffffffff1603610dc557826040517f7e273289000000000000000000000000000000000000000000000000000000008152600401610dbc919061249f565b60405180910390fd5b80915050919050565b5f60045f8381526020019081526020015f205f9054906101000a900473ffffffffffffffffffffffffffffffffffffffff169050919050565b5f33905090565b610e1b83838360016115ea565b505050565b5f610e2c8484846117a9565b90509392505050565b610e4e828260405180602001604052805f8152506117c6565b5050565b610e5a610e07565b73ffffffffffffffffffffffffffffffffffffffff16610e78610a63565b73ffffffffffffffffffffffffffffffffffffffff1614610ed757610e9b610e07565b6040517f118cdaa7000000000000000000000000000000000000000000000000000000008152600401610ece919061240f565b60405180910390fd5b565b610ee16117e9565b5f600a5f6101000a81548160ff0219169083151502179055507f5db9ee0a495bf2e6ff9c91a7834c1ba4fdd244a5e8aa4e537bd38aeae4b073aa610f23610e07565b604051610f30919061240f565b60405180910390a1565b5f600a60019054906101000a900473ffffffffffffffffffffffffffffffffffffffff16905081600a60016101000a81548173ffffffffffffffffffffffffffffffffffffffff021916908373ffffffffffffffffffffffffffffffffffffffff1602179055508173ffffffffffffffffffffffffffffffffffffffff168173ffffffffffffffffffffffffffffffffffffffff167f8be0079c531659141344cd1fd0a4f28419497f9722a3daafe3b4186f6b6457e060405160405180910390a35050565b611007611829565b6001600a5f6101000a81548160ff0219169083151502179055507f62e78cea01bee320cd4e420270b5ea74000d11b0c9f74754ebdbfc544b05a25861104a610e07565b604051611057919061240f565b60405180910390a1565b5f73ffffffffffffffffffffffffffffffffffffffff168373ffffffffffffffffffffffffffffffffffffffff16036110d1575f6040517fa9fbf51f0000000000000000000000000000000000000000000000000000000081526004016110c8919061240f565b60405180910390fd5b5f73ffffffffffffffffffffffffffffffffffffffff168273ffffffffffffffffffffffffffffffffffffffff160361114157816040517f5b08ba18000000000000000000000000000000000000000000000000000000008152600401611138919061240f565b60405180910390fd5b8060055f8573ffffffffffffffffffffffffffffffffffffffff1673ffffffffffffffffffffffffffffffffffffffff1681526020019081526020015f205f8473ffffffffffffffffffffffffffffffffffffffff1673ffffffffffffffffffffffffffffffffffffffff1681526020019081526020015f205f6101000a81548160ff0219169083151502179055508173ffffffffffffffffffffffffffffffffffffffff168373ffffffffffffffffffffffffffffffffffffffff167f17307eab39ab6107e8899845ad3d59bd9653f200f220920489ca2b5937696c318360405161122d91906122c9565b60405180910390a3505050565b5f8373ffffffffffffffffffffffffffffffffffffffff163b11156113df578273ffffffffffffffffffffffffffffffffffffffff1663150b7a02868685856040518563ffffffff1660e01b81526004016112989493929190612a5e565b6020604051808303815f875af19250505080156112d357506040513d601f19601f820116820180604052508101906112d09190612abc565b60015b611354573d805f8114611301576040519150601f19603f3d011682016040523d82523d5f602084013e611306565b606091505b505f81510361134c57836040517f64a0ae92000000000000000000000000000000000000000000000000000000008152600401611343919061240f565b60405180910390fd5b805160208201fd5b63150b7a0260e01b7bffffffffffffffffffffffffffffffffffffffffffffffffffffffff1916817bffffffffffffffffffffffffffffffffffffffffffffffffffffffff1916146113dd57836040517f64a0ae920000000000000000000000000000000000000000000000000000000081526004016113d4919061240f565b60405180910390fd5b505b5050505050565b6060604051806060016040528060368152602001612b7560369139905090565b60605f60016114148461186a565b0190505f8167ffffffffffffffff811115611432576114316125a3565b5b6040519080825280601f01601f1916602001820160405280156114645781602001600182028036833780820191505090505b5090505f82602083010190505b6001156114c5578080600190039150507f3031323334353637383961626364656600000000000000000000000000000000600a86061a8153600a85816114ba576114b9612ae7565b5b0494505f8503611471575b819350505050919050565b5f7f80ac58cd000000000000000000000000000000000000000000000000000000007bffffffffffffffffffffffffffffffffffffffffffffffffffffffff1916827bffffffffffffffffffffffffffffffffffffffffffffffffffffffff1916148061159a57507f5b5e139f000000000000000000000000000000000000000000000000000000007bffffffffffffffffffffffffffffffffffffffffffffffffffffffff1916827bffffffffffffffffffffffffffffffffffffffffffffffffffffffff1916145b806115aa57506115a9826119bb565b5b9050919050565b5f60025f8381526020019081526020015f205f9054906101000a900473ffffffffffffffffffffffffffffffffffffffff169050919050565b808061162257505f73ffffffffffffffffffffffffffffffffffffffff168273ffffffffffffffffffffffffffffffffffffffff1614155b15611754575f61163184610d48565b90505f73ffffffffffffffffffffffffffffffffffffffff168373ffffffffffffffffffffffffffffffffffffffff161415801561169b57508273ffffffffffffffffffffffffffffffffffffffff168173ffffffffffffffffffffffffffffffffffffffff1614155b80156116ae57506116ac8184610bbd565b155b156116f057826040517fa9fbf51f0000000000000000000000000000000000000000000000000000000081526004016116e7919061240f565b60405180910390fd5b811561175257838573ffffffffffffffffffffffffffffffffffffffff168273ffffffffffffffffffffffffffffffffffffffff167f8c5be1e5ebec7d5bd14f71427d1e84f3dd0314c0f7b2291e5b200ac8c7c3b92560405160405180910390a45b505b8360045f8581526020019081526020015f205f6101000a81548173ffffffffffffffffffffffffffffffffffffffff021916908373ffffffffffffffffffffffffffffffffffffffff16021790555050505050565b5f6117b2611829565b6117bd848484611a24565b90509392505050565b6117d08383611b3e565b6117e46117db610e07565b5f85858561123a565b505050565b6117f1610962565b611827576040517f8dfc202b00000000000000000000000000000000000000000000000000000000815260040160405180910390fd5b565b611831610962565b15611868576040517fd93c066500000000000000000000000000000000000000000000000000000000815260040160405180910390fd5b565b5f5f5f90507a184f03e93ff9f4daa797ed6e38ed64bf6a1f01000000000000000083106118c6577a184f03e93ff9f4daa797ed6e38ed64bf6a1f01000000000000000083816118bc576118bb612ae7565b5b0492506040810190505b6d04ee2d6d415b85acef81000000008310611903576d04ee2d6d415b85acef810000000083816118f9576118f8612ae7565b5b0492506020810190505b662386f26fc10000831061193257662386f26fc10000838161192857611927612ae7565b5b0492506010810190505b6305f5e100831061195b576305f5e100838161195157611950612ae7565b5b0492506008810190505b612710831061198057612710838161197657611975612ae7565b5b0492506004810190505b606483106119a3576064838161199957611998612ae7565b5b0492506002810190505b600a83106119b2576001810190505b80915050919050565b5f7f01ffc9a7000000000000000000000000000000000000000000000000000000007bffffffffffffffffffffffffffffffffffffffffffffffffffffffff1916827bffffffffffffffffffffffffffffffffffffffffffffffffffffffff1916149050919050565b5f5f611a31858585611c31565b90505f73ffffffffffffffffffffffffffffffffffffffff168173ffffffffffffffffffffffffffffffffffffffff1603611a7457611a6f84611e3c565b611ab3565b8473ffffffffffffffffffffffffffffffffffffffff168173ffffffffffffffffffffffffffffffffffffffff1614611ab257611ab18185611e80565b5b5b5f73ffffffffffffffffffffffffffffffffffffffff168573ffffffffffffffffffffffffffffffffffffffff1603611af457611aef84611f57565b611b33565b8473ffffffffffffffffffffffffffffffffffffffff168173ffffffffffffffffffffffffffffffffffffffff1614611b3257611b318585612017565b5b5b809150509392505050565b5f73ffffffffffffffffffffffffffffffffffffffff168273ffffffffffffffffffffffffffffffffffffffff1603611bae575f6040517f64a0ae92000000000000000000000000000000000000000000000000000000008152600401611ba5919061240f565b60405180910390fd5b5f611bba83835f610e20565b90505f73ffffffffffffffffffffffffffffffffffffffff168173ffffffffffffffffffffffffffffffffffffffff1614611c2c575f6040517f73c6ac6e000000000000000000000000000000000000000000000000000000008152600401611c23919061240f565b60405180910390fd5b505050565b5f5f611c3c846115b1565b90505f73ffffffffffffffffffffffffffffffffffffffff168373ffffffffffffffffffffffffffffffffffffffff1614611c7d57611c7c81848661209b565b5b5f73ffffffffffffffffffffffffffffffffffffffff168173ffffffffffffffffffffffffffffffffffffffff1614611d0857611cbc5f855f5f6115ea565b600160035f8373ffffffffffffffffffffffffffffffffffffffff1673ffffffffffffffffffffffffffffffffffffffff1681526020019081526020015f205f82825403925050819055505b5f73ffffffffffffffffffffffffffffffffffffffff168573ffffffffffffffffffffffffffffffffffffffff1614611d8757600160035f8773ffffffffffffffffffffffffffffffffffffffff1673ffffffffffffffffffffffffffffffffffffffff1681526020019081526020015f205f82825401925050819055505b8460025f8681526020019081526020015f205f6101000a81548173ffffffffffffffffffffffffffffffffffffffff021916908373ffffffffffffffffffffffffffffffffffffffff160217905550838573ffffffffffffffffffffffffffffffffffffffff168273ffffffffffffffffffffffffffffffffffffffff167fddf252ad1be2c89b69c2b068fc378daa952ba7f163c4a11628f55a4df523b3ef60405160405180910390a4809150509392505050565b60088054905060095f8381526020019081526020015f2081905550600881908060018154018082558091505060019003905f5260205f20015f909190919091505550565b5f611e8a83610988565b90505f60075f8481526020019081526020015f205490505f60065f8673ffffffffffffffffffffffffffffffffffffffff1673ffffffffffffffffffffffffffffffffffffffff1681526020019081526020015f209050828214611f29575f815f8581526020019081526020015f2054905080825f8581526020019081526020015f20819055508260075f8381526020019081526020015f2081905550505b60075f8581526020019081526020015f205f9055805f8481526020019081526020015f205f90555050505050565b5f6001600880549050611f6a9190612b14565b90505f60095f8481526020019081526020015f205490505f60088381548110611f9657611f95612982565b5b905f5260205f20015490508060088381548110611fb657611fb5612982565b5b905f5260205f2001819055508160095f8381526020019081526020015f208190555060095f8581526020019081526020015f205f90556008805480611ffe57611ffd612b47565b5b600190038181905f5260205f20015f9055905550505050565b5f600161202384610988565b61202d9190612b14565b90508160065f8573ffffffffffffffffffffffffffffffffffffffff1673ffffffffffffffffffffffffffffffffffffffff1681526020019081526020015f205f8381526020019081526020015f20819055508060075f8481526020019081526020015f2081905550505050565b6120a683838361215e565b612159575f73ffffffffffffffffffffffffffffffffffffffff168373ffffffffffffffffffffffffffffffffffffffff160361211a57806040517f7e273289000000000000000000000000000000000000000000000000000000008152600401612111919061249f565b60405180910390fd5b81816040517f177e802f00000000000000000000000000000000000000000000000000000000815260040161215092919061295b565b60405180910390fd5b505050565b5f5f73ffffffffffffffffffffffffffffffffffffffff168373ffffffffffffffffffffffffffffffffffffffff161415801561221557508273ffffffffffffffffffffffffffffffffffffffff168473ffffffffffffffffffffffffffffffffffffffff1614806121d657506121d58484610bbd565b5b8061221457508273ffffffffffffffffffffffffffffffffffffffff166121fc83610dce565b73ffffffffffffffffffffffffffffffffffffffff16145b5b90509392505050565b5f604051905090565b5f5ffd5b5f5ffd5b5f7fffffffff0000000000000000000000000000000000000000000000000000000082169050919050565b6122638161222f565b811461226d575f5ffd5b50565b5f8135905061227e8161225a565b92915050565b5f6020828403121561229957612298612227565b5b5f6122a684828501612270565b91505092915050565b5f8115159050919050565b6122c3816122af565b82525050565b5f6020820190506122dc5f8301846122ba565b92915050565b5f81519050919050565b5f82825260208201905092915050565b8281835e5f83830152505050565b5f601f19601f8301169050919050565b5f612324826122e2565b61232e81856122ec565b935061233e8185602086016122fc565b6123478161230a565b840191505092915050565b5f6020820190508181035f83015261236a818461231a565b905092915050565b5f819050919050565b61238481612372565b811461238e575f5ffd5b50565b5f8135905061239f8161237b565b92915050565b5f602082840312156123ba576123b9612227565b5b5f6123c784828501612391565b91505092915050565b5f73ffffffffffffffffffffffffffffffffffffffff82169050919050565b5f6123f9826123d0565b9050919050565b612409816123ef565b82525050565b5f6020820190506124225f830184612400565b92915050565b612431816123ef565b811461243b575f5ffd5b50565b5f8135905061244c81612428565b92915050565b5f5f6040838503121561246857612467612227565b5b5f6124758582860161243e565b925050602061248685828601612391565b9150509250929050565b61249981612372565b82525050565b5f6020820190506124b25f830184612490565b92915050565b5f5f5f606084860312156124cf576124ce612227565b5b5f6124dc8682870161243e565b93505060206124ed8682870161243e565b92505060406124fe86828701612391565b9150509250925092565b5f6020828403121561251d5761251c612227565b5b5f61252a8482850161243e565b91505092915050565b61253c816122af565b8114612546575f5ffd5b50565b5f8135905061255781612533565b92915050565b5f5f6040838503121561257357612572612227565b5b5f6125808582860161243e565b925050602061259185828601612549565b9150509250929050565b5f5ffd5b5f5ffd5b7f4e487b71000000000000000000000000000000000000000000000000000000005f52604160045260245ffd5b6125d98261230a565b810181811067ffffffffffffffff821117156125f8576125f76125a3565b5b80604052505050565b5f61260a61221e565b905061261682826125d0565b919050565b5f67ffffffffffffffff821115612635576126346125a3565b5b61263e8261230a565b9050602081019050919050565b828183375f83830152505050565b5f61266b6126668461261b565b612601565b9050828152602081018484840111156126875761268661259f565b5b61269284828561264b565b509392505050565b5f82601f8301126126ae576126ad61259b565b5b81356126be848260208601612659565b91505092915050565b5f5f5f5f608085870312156126df576126de612227565b5b5f6126ec8782880161243e565b94505060206126fd8782880161243e565b935050604061270e87828801612391565b925050606085013567ffffffffffffffff81111561272f5761272e61222b565b5b61273b8782880161269a565b91505092959194509250565b5f5f6040838503121561275d5761275c612227565b5b5f61276a8582860161243e565b925050602061277b8582860161243e565b9150509250929050565b7f4e487b71000000000000000000000000000000000000000000000000000000005f52602260045260245ffd5b5f60028204905060018216806127c957607f821691505b6020821081036127dc576127db612785565b5b50919050565b5f6060820190506127f55f830186612400565b6128026020830185612490565b61280f6040830184612400565b949350505050565b7f4e4f5420454e4f5547482046554e4453000000000000000000000000000000005f82015250565b5f61284b6010836122ec565b915061285682612817565b602082019050919050565b5f6020820190508181035f8301526128788161283f565b9050919050565b7f574520534f4c44204f55540000000000000000000000000000000000000000005f82015250565b5f6128b3600b836122ec565b91506128be8261287f565b602082019050919050565b5f6020820190508181035f8301526128e0816128a7565b9050919050565b7f4e487b71000000000000000000000000000000000000000000000000000000005f52601160045260245ffd5b5f61291e82612372565b91507fffffffffffffffffffffffffffffffffffffffffffffffffffffffffffffffff82036129505761294f6128e7565b5b600182019050919050565b5f60408201905061296e5f830185612400565b61297b6020830184612490565b9392505050565b7f4e487b71000000000000000000000000000000000000000000000000000000005f52603260045260245ffd5b5f81905092915050565b5f6129c3826122e2565b6129cd81856129af565b93506129dd8185602086016122fc565b80840191505092915050565b5f6129f482856129b9565b9150612a0082846129b9565b91508190509392505050565b5f81519050919050565b5f82825260208201905092915050565b5f612a3082612a0c565b612a3a8185612a16565b9350612a4a8185602086016122fc565b612a538161230a565b840191505092915050565b5f608082019050612a715f830187612400565b612a7e6020830186612400565b612a8b6040830185612490565b8181036060830152612a9d8184612a26565b905095945050505050565b5f81519050612ab68161225a565b92915050565b5f60208284031215612ad157612ad0612227565b5b5f612ade84828501612aa8565b91505092915050565b7f4e487b71000000000000000000000000000000000000000000000000000000005f52601260045260245ffd5b5f612b1e82612372565b9150612b2983612372565b9250828203905081811115612b4157612b406128e7565b5b92915050565b7f4e487b71000000000000000000000000000000000000000000000000000000005f52603160045260245ffdfe697066733a2f2f516d593572507147544e31725a784d516732417069535a63374a69424e73317279447a58505a705168433169626d2fa2646970667358221220082d68a8a7d0d34b3603b9b6c9895b448a0e422a95fc2494e53aacbcc789f5d464736f6c63430008210033","linkReferences":{}},"methodIdentifiers":{"approve(address,uint256)":"095ea7b3","balanceOf(address)":"70a08231","getApproved(uint256)":"081812fc","isApprovedForAll(address,address)":"e985e9c5","maxsupply()":"4b6406d1","name()":"06fdde03","owner()":"8da5cb5b","ownerOf(uint256)":"6352211e","pause()":"8456cb59","paused()":"5c975abb","publicMint()":"26092b83","renounceOwnership()":"715018a6","safeTransferFrom(address,address,uint256)":"42842e0e","safeTransferFrom(address,address,uint256,bytes)":"b88d4fde","setApprovalForAll(address,bool)":"a22cb465","supportsInterface(bytes4)":"01ffc9a7","symbol()":"95d89b41","tokenByIndex(uint256)":"4f6ccce7","tokenOfOwnerByIndex(address,uint256)":"2f745c59","tokenURI(uint256)":"c87b56dd","totalSupply()":"18160ddd","transferFrom(address,address,uint256)":"23b872dd","transferOwnership(address)":"f2fde38b","unpause()":"3f4ba83a"},"id":20}