{"abi":[{"type":"constructor","inputs":[],"stateMutability":"nonpayable"},{"type":"function","name":"Allowlistmint","inputs":[{"name":"","type":"address","internalType":"address"}],"outputs":[{"name":"","type":"bool","internalType":"bool"}],"stateMutability":"view"},{"type":"function","name":"allowlistmint","inputs":[],"outputs":[],"stateMutability":"payable"},{"type":"function","name":"allowlistmintopen","inputs":[],"outputs":[{"name":"","type":"bool","internalType":"bool"}],"stateMutability":"view"},{"type":"function","name":"approve","inputs":[{"name":"to","type":"address","internalType":"address"},{"name":"tokenId","type":"uint256","internalType":"uint256"}],"outputs":[],"stateMutability":"nonpayable"},{"type":"function","name":"balanceOf","inputs":[{"name":"owner","type":"address","internalType":"address"}],"outputs":[{"name":"","type":"uint256","internalType":"uint256"}],"stateMutability":"view"},{"type":"function","name":"editmintwindow","inputs":[{"name":"_publicMintopen","type":"bool","internalType":"bool"},{"name":"_allowlistmintopen","type":"bool","internalType":"bool"}],"outputs":[],"stateMutability":"nonpayable"},{"type":"function","name":"getApproved","inputs":[{"name":"tokenId","type":"uint256","internalType":"uint256"}],"outputs":[{"name":"","type":"address","internalType":"address"}],"stateMutability":"view"},{"type":"function","name":"isApprovedForAll","inputs":[{"name":"owner","type":"address","internalType":"address"},{"name":"operator","type":"address","internalType":"address"}],"outputs":[{"name":"","type":"bool","internalType":"bool"}],"stateMutability":"view"},{"type":"function","name":"maxsupply","inputs":[],"outputs":[{"name":"","type":"uint256","internalType":"uint256"}],"stateMutability":"view"},{"type":"function","name":"name","inputs":[],"outputs":[{"name":"","type":"string","internalType":"string"}],"stateMutability":"view"},{"type":"function","name":"owner","inputs":[],"outputs":[{"name":"","type":"address","internalType":"address"}],"stateMutability":"view"},{"type":"function","name":"ownerOf","inputs":[{"name":"tokenId","type":"uint256","internalType":"uint256"}],"outputs":[{"name":"","type":"address","internalType":"address"}],"stateMutability":"view"},{"type":"function","name":"pause","inputs":[],"outputs":[],"stateMutability":"nonpayable"},{"type":"function","name":"paused","inputs":[],"outputs":[{"name":"","type":"bool","internalType":"bool"}],"stateMutability":"view"},{"type":"function","name":"publicMint","inputs":[],"outputs":[{"name":"","type":"uint256","internalType":"uint256"}],"stateMutability":"payable"},{"type":"function","name":"publicMintopen","inputs":[],"outputs":[{"name":"","type":"bool","internalType":"bool"}],"stateMutability":"view"},{"type":"function","name":"renounceOwnership","inputs":[],"outputs":[],"stateMutability":"nonpayable"},{"type":"function","name":"safeTransferFrom","inputs":[{"name":"from","type":"address","internalType":"address"},{"name":"to","type":"address","internalType":"address"},{"name":"tokenId","type":"uint256","internalType":"uint256"}],"outputs":[],"stateMutability":"nonpayable"},{"type":"function","name":"safeTransferFrom","inputs":[{"name":"from","type":"address","internalType":"address"},{"name":"to","type":"address","internalType":"address"},{"name":"tokenId","type":"uint256","internalType":"uint256"},{"name":"data","type":"bytes","internalType":"bytes"}],"outputs":[],"stateMutability":"nonpayable"},{"type":"function","name":"setAllowlist","inputs":[{"name":"addresses","type":"address[]","internalType":"address[]"}],"outputs":[],"stateMutability":"nonpayable"},{"type":"function","name":"setApprovalForAll","inputs":[{"name":"operator","type":"address","internalType":"address"},{"name":"approved","type":"bool","internalType":"bool"}],"outputs":[],"stateMutability":"nonpayable"},{"type":"function","name":"supportsInterface","inputs":[{"name":"interfaceId","type":"bytes4","internalType":"bytes4"}],"outputs":[{"name":"","type":"bool","internalType":"bool"}],"stateMutability":"view"},{"type":"function","name":"symbol","inputs":[],"outputs":[{"name":"","type":"string","internalType":"string"}],"stateMutability":"view"},{"type":"function","name":"tokenByIndex","inputs":[{"name":"index","type":"uint256","internalType":"uint256"}],"outputs":[{"name":"","type":"uint256","internalType":"uint256"}],"stateMutability":"view"},{"type":"function","name":"tokenOfOwnerByIndex","inputs":[{"name":"owner","type":"address","internalType":"address"},{"name":"index","type":"uint256","internalType":"uint256"}],"outputs":[{"name":"","type":"uint256","internalType":"uint256"}],"stateMutability":"view"},{"type":"function","name":"tokenURI","inputs":[{"name":"tokenId","type":"uint256","internalType":"uint256"}],"outputs":[{"name":"","type":"string","internalType":"string"}],"stateMutability":"view"},{"type":"function","name":"totalSupply","inputs":[],"outputs":[{"name":"","type":"uint256","internalType":"uint256"}],"stateMutability":"view"},{"type":"function","name":"transferFrom","inputs":[{"name":"from","type":"address","internalType":"address"},{"name":"to","type":"address","internalType":"address"},{"name":"tokenId","type":"uint256","internalType":"uint256"}],"outputs":[],"stateMutability":"nonpayable"},{"type":"function","name":"transferOwnership","inputs":[{"name":"newOwner","type":"address","internalType":"address"}],"outputs":[],"stateMutability":"nonpayable"},{"type":"function","name":"unpause","inputs":[],"outputs":[],"stateMutability":"nonpayable"},{"type":"function","name":"withdraw","inputs":[{"name":"_addr","type":"address","internalType":"address"}],"outputs":[],"stateMutability":"nonpayable"},{"type":"event","name":"Approval","inputs":[{"name":"owner","type":"address","indexed":true,"internalType":"address"},{"name":"approved","type":"address","indexed":true,"internalType":"address"},{"name":"tokenId","type":"uint256","indexed":true,"internalType":"uint256"}],"anonymous":false},{"type":"event","name":"ApprovalForAll","inputs":[{"name":"owner","type":"address","indexed":true,"internalType":"address"},{"name":"operator","type":"address","indexed":true,"internalType":"address"},{"name":"approved","type":"bool","indexed":false,"internalType":"bool"}],"anonymous":false},{"type":"event","name":"OwnershipTransferred","inputs":[{"name":"previousOwner","type":"address","indexed":true,"internalType":"address"},{"name":"newOwner","type":"address","indexed":true,"internalType":"address"}],"anonymous":false},{"type":"event","name":"Paused","inputs":[{"name":"account","type":"address","indexed":false,"internalType":"address"}],"anonymous":false},{"type":"event","name":"Transfer","inputs":[{"name":"from","type":"address","indexed":true,"internalType":"address"},{"name":"to","type":"address","indexed":true,"internalType":"address"},{"name":"tokenId","type":"uint256","indexed":true,"internalType":"uint256"}],"anonymous":false},{"type":"event","name":"Unpaused","inputs":[{"name":"account","type":"address","indexed":false,"internalType":"address"}],"anonymous":false},{"type":"error","name":"ERC721EnumerableForbiddenBatchMint","inputs":[]},{"type":"error","name":"ERC721IncorrectOwner","inputs":[{"name":"sender","type":"address","internalType":"address"},{"name":"tokenId","type":"uint256","internalType":"uint256"},{"name":"owner","type":"address","internalType":"address"}]},{"type":"error","name":"ERC721InsufficientApproval","inputs":[{"name":"operator","type":"address","internalType":"address"},{"name":"tokenId","type":"uint256","internalType":"uint256"}]},{"type":"error","name":"ERC721InvalidApprover","inputs":[{"name":"approver","type":"address","internalType":"address"}]},{"type":"error","name":"ERC721InvalidOperator","inputs":[{"name":"operator","type":"address","internalType":"address"}]},{"type":"error","name":"ERC721InvalidOwner","inputs":[{"name":"owner","type":"address","internalType":"address"}]},{"type":"error","name":"ERC721InvalidReceiver","inputs":[{"name":"receiver","type":"address","internalType":"address"}]},{"type":"error","name":"ERC721InvalidSender","inputs":[{"name":"sender","type":"address","internalType":"address"}]},{"type":"error","name":"ERC721NonexistentToken","inputs":[{"name":"tokenId","type":"uint256","internalType":"uint256"}]},{"type":"error","name":"ERC721OutOfBoundsIndex","inputs":[{"name":"owner","type":"address","internalType":"address"},{"name":"index","type":"uint256","internalType":"uint256"}]},{"type":"error","name":"EnforcedPause","inputs":[]},{"type":"error","name":"ExpectedPause","inputs":[]},{"type":"error","name":"OwnableInvalidOwner","inputs":[{"name":"owner","type":"address","internalType":"address"}]},{"type":"error","name":"OwnableUnauthorizedAccount","inputs":[{"name":"account","type":"address","internalType":"address"}]}],"bytecode":{"object":"0x6080604052611388600c555f600d5f6101000a81548160ff0219169083151502179055505f600d60016101000a81548160ff021916908315150217905550348015610048575f5ffd5b50336040518060400160405280600a81526020017f77656233657263373231000000000000000000000000000000000000000000008152506040518060400160405280600381526020017f7765330000000000000000000000000000000000000000000000000000000000815250815f90816100c4919061046f565b5080600190816100d4919061046f565b5050505f73ffffffffffffffffffffffffffffffffffffffff168173ffffffffffffffffffffffffffffffffffffffff1603610147575f6040517f1e4fbdf700000000000000000000000000000000000000000000000000000000815260040161013e919061057d565b60405180910390fd5b6101568161015c60201b60201c565b50610596565b5f600a60019054906101000a900473ffffffffffffffffffffffffffffffffffffffff16905081600a60016101000a81548173ffffffffffffffffffffffffffffffffffffffff021916908373ffffffffffffffffffffffffffffffffffffffff1602179055508173ffffffffffffffffffffffffffffffffffffffff168173ffffffffffffffffffffffffffffffffffffffff167f8be0079c531659141344cd1fd0a4f28419497f9722a3daafe3b4186f6b6457e060405160405180910390a35050565b5f81519050919050565b7f4e487b71000000000000000000000000000000000000000000000000000000005f52604160045260245ffd5b7f4e487b71000000000000000000000000000000000000000000000000000000005f52602260045260245ffd5b5f600282049050600182168061029c57607f821691505b6020821081036102af576102ae610258565b5b50919050565b5f819050815f5260205f209050919050565b5f6020601f8301049050919050565b5f82821b905092915050565b5f600883026103117fffffffffffffffffffffffffffffffffffffffffffffffffffffffffffffffff826102d6565b61031b86836102d6565b95508019841693508086168417925050509392505050565b5f819050919050565b5f819050919050565b5f61035f61035a61035584610333565b61033c565b610333565b9050919050565b5f819050919050565b61037883610345565b61038c61038482610366565b8484546102e2565b825550505050565b5f5f905090565b6103a3610394565b6103ae81848461036f565b505050565b5f5b828110156103d4576103c95f82840161039b565b6001810190506103b5565b505050565b601f8211156104275782821115610426576103f3816102b5565b6103fc836102c7565b610405856102c7565b6020861015610412575f90505b808301610421828403826103b3565b505050505b5b505050565b5f82821c905092915050565b5f6104475f198460080261042c565b1980831691505092915050565b5f61045f8383610438565b9150826002028217905092915050565b61047882610221565b67ffffffffffffffff8111156104915761049061022b565b5b61049b8254610285565b6104a68282856103d9565b5f60209050601f8311600181146104d7575f84156104c5578287015190505b6104cf8582610454565b865550610536565b601f1984166104e5866102b5565b5f5b8281101561050c578489015182556001820191506020850194506020810190506104e7565b868310156105295784890151610525601f891682610438565b8355505b6001600288020188555050505b505050505050565b5f73ffffffffffffffffffffffffffffffffffffffff82169050919050565b5f6105678261053e565b9050919050565b6105778161055d565b82525050565b5f6020820190506105905f83018461056e565b92915050565b6132a1806105a35f395ff3fe6080604052600436106101d7575f3560e01c80636352211e11610101578063b14f316b11610094578063e148f5ed11610063578063e148f5ed14610681578063e985e9c51461068b578063f2fde38b146106c7578063f51c24d9146106ef576101d7565b8063b14f316b146105cb578063b88d4fde146105f5578063c87b56dd1461061d578063d5e4a93d14610659576101d7565b806387aeb092116100d057806387aeb092146105135780638da5cb5b1461054f57806395d89b4114610579578063a22cb465146105a3576101d7565b80636352211e1461046f57806370a08231146104ab578063715018a6146104e75780638456cb59146104fd576101d7565b80632f745c59116101795780634f6ccce7116101485780634f6ccce7146103b957806351cff8d9146103f5578063552b818b1461041d5780635c975abb14610445576101d7565b80632f745c59146103155780633f4ba83a1461035157806342842e0e146103675780634b6406d11461038f576101d7565b8063095ea7b3116101b5578063095ea7b31461027d57806318160ddd146102a557806323b872dd146102cf57806326092b83146102f7576101d7565b806301ffc9a7146101db57806306fdde0314610217578063081812fc14610241575b5f5ffd5b3480156101e6575f5ffd5b5061020160048036038101906101fc9190612727565b610719565b60405161020e919061276c565b60405180910390f35b348015610222575f5ffd5b5061022b61072a565b60405161023891906127f5565b60405180910390f35b34801561024c575f5ffd5b5061026760048036038101906102629190612848565b6107b9565b60405161027491906128b2565b60405180910390f35b348015610288575f5ffd5b506102a3600480360381019061029e91906128f5565b6107d4565b005b3480156102b0575f5ffd5b506102b96107ea565b6040516102c69190612942565b60405180910390f35b3480156102da575f5ffd5b506102f560048036038101906102f0919061295b565b6107f6565b005b6102ff6108f5565b60405161030c9190612942565b60405180910390f35b348015610320575f5ffd5b5061033b600480360381019061033691906128f5565b61099a565b6040516103489190612942565b60405180910390f35b34801561035c575f5ffd5b50610365610a3e565b005b348015610372575f5ffd5b5061038d6004803603810190610388919061295b565b610a50565b005b34801561039a575f5ffd5b506103a3610a6f565b6040516103b09190612942565b60405180910390f35b3480156103c4575f5ffd5b506103df60048036038101906103da9190612848565b610a75565b6040516103ec9190612942565b60405180910390f35b348015610400575f5ffd5b5061041b600480360381019061041691906129ab565b610ae7565b005b348015610428575f5ffd5b50610443600480360381019061043e9190612a37565b610b3b565b005b348015610450575f5ffd5b50610459610be1565b604051610466919061276c565b60405180910390f35b34801561047a575f5ffd5b5061049560048036038101906104909190612848565b610bf6565b6040516104a291906128b2565b60405180910390f35b3480156104b6575f5ffd5b506104d160048036038101906104cc91906129ab565b610c07565b6040516104de9190612942565b60405180910390f35b3480156104f2575f5ffd5b506104fb610cbd565b005b348015610508575f5ffd5b50610511610cd0565b005b34801561051e575f5ffd5b50610539600480360381019061053491906129ab565b610ce2565b604051610546919061276c565b60405180910390f35b34801561055a575f5ffd5b50610563610cff565b60405161057091906128b2565b60405180910390f35b348015610584575f5ffd5b5061058d610d28565b60405161059a91906127f5565b60405180910390f35b3480156105ae575f5ffd5b506105c960048036038101906105c49190612aac565b610db8565b005b3480156105d6575f5ffd5b506105df610dce565b6040516105ec919061276c565b60405180910390f35b348015610600575f5ffd5b5061061b60048036038101906106169190612c12565b610de1565b005b348015610628575f5ffd5b50610643600480360381019061063e9190612848565b610e06565b60405161065091906127f5565b60405180910390f35b348015610664575f5ffd5b5061067f600480360381019061067a9190612c92565b610e6c565b005b610689610eab565b005b348015610696575f5ffd5b506106b160048036038101906106ac9190612cd0565b610fd8565b6040516106be919061276c565b60405180910390f35b3480156106d2575f5ffd5b506106ed60048036038101906106e891906129ab565b611066565b005b3480156106fa575f5ffd5b506107036110ea565b604051610710919061276c565b60405180910390f35b5f610723826110fc565b9050919050565b60605f805461073890612d3b565b80601f016020809104026020016040519081016040528092919081815260200182805461076490612d3b565b80156107af5780601f10610786576101008083540402835291602001916107af565b820191905f5260205f20905b81548152906001019060200180831161079257829003601f168201915b5050505050905090565b5f6107c382611175565b506107cd826111fb565b9050919050565b6107e682826107e1611234565b61123b565b5050565b5f600880549050905090565b5f73ffffffffffffffffffffffffffffffffffffffff168273ffffffffffffffffffffffffffffffffffffffff1603610866575f6040517f64a0ae9200000000000000000000000000000000000000000000000000000000815260040161085d91906128b2565b60405180910390fd5b5f6108798383610874611234565b61124d565b90508373ffffffffffffffffffffffffffffffffffffffff168173ffffffffffffffffffffffffffffffffffffffff16146108ef578382826040517f64283d7b0000000000000000000000000000000000000000000000000000000081526004016108e693929190612d6b565b60405180910390fd5b50505050565b5f600d5f9054906101000a900460ff16610944576040517f08c379a000000000000000000000000000000000000000000000000000000000815260040161093b90612dea565b60405180910390fd5b662386f26fc10000341461098d576040517f08c379a000000000000000000000000000000000000000000000000000000000815260040161098490612e52565b60405180910390fd5b610995611262565b905090565b5f6109a483610c07565b82106109e95782826040517fa57d13dc0000000000000000000000000000000000000000000000000000000081526004016109e0929190612e70565b60405180910390fd5b60065f8473ffffffffffffffffffffffffffffffffffffffff1673ffffffffffffffffffffffffffffffffffffffff1681526020019081526020015f205f8381526020019081526020015f2054905092915050565b610a466112d8565b610a4e61135f565b565b610a6a83838360405180602001604052805f815250610de1565b505050565b600c5481565b5f610a7e6107ea565b8210610ac3575f826040517fa57d13dc000000000000000000000000000000000000000000000000000000008152600401610aba929190612e70565b60405180910390fd5b60088281548110610ad757610ad6612e97565b5b905f5260205f2001549050919050565b610aef6112d8565b5f4790508173ffffffffffffffffffffffffffffffffffffffff166108fc8290811502906040515f60405180830381858888f19350505050158015610b36573d5f5f3e3d5ffd5b505050565b610b436112d8565b5f5f90505b82829050811015610bdc576001600e5f858585818110610b6b57610b6a612e97565b5b9050602002016020810190610b8091906129ab565b73ffffffffffffffffffffffffffffffffffffffff1673ffffffffffffffffffffffffffffffffffffffff1681526020019081526020015f205f6101000a81548160ff0219169083151502179055508080600101915050610b48565b505050565b5f600a5f9054906101000a900460ff16905090565b5f610c0082611175565b9050919050565b5f5f73ffffffffffffffffffffffffffffffffffffffff168273ffffffffffffffffffffffffffffffffffffffff1603610c78575f6040517f89c62b64000000000000000000000000000000000000000000000000000000008152600401610c6f91906128b2565b60405180910390fd5b60035f8373ffffffffffffffffffffffffffffffffffffffff1673ffffffffffffffffffffffffffffffffffffffff1681526020019081526020015f20549050919050565b610cc56112d8565b610cce5f6113c0565b565b610cd86112d8565b610ce0611485565b565b600e602052805f5260405f205f915054906101000a900460ff1681565b5f600a60019054906101000a900473ffffffffffffffffffffffffffffffffffffffff16905090565b606060018054610d3790612d3b565b80601f0160208091040260200160405190810160405280929190818152602001828054610d6390612d3b565b8015610dae5780601f10610d8557610100808354040283529160200191610dae565b820191905f5260205f20905b815481529060010190602001808311610d9157829003601f168201915b5050505050905090565b610dca610dc3611234565b83836114e7565b5050565b600d60019054906101000a900460ff1681565b610dec8484846107f6565b610e00610df7611234565b858585856116c0565b50505050565b6060610e1182611175565b505f610e1b61186c565b90505f815111610e395760405180602001604052805f815250610e64565b80610e438461188c565b604051602001610e54929190612efe565b6040516020818303038152906040525b915050919050565b610e746112d8565b81600d5f6101000a81548160ff02191690831515021790555080600d60016101000a81548160ff0219169083151502179055505050565b600d60019054906101000a900460ff16610efa576040517f08c379a0000000000000000000000000000000000000000000000000000000008152600401610ef190612f6b565b60405180910390fd5b600e5f3373ffffffffffffffffffffffffffffffffffffffff1673ffffffffffffffffffffffffffffffffffffffff1681526020019081526020015f205f9054906101000a900460ff16610f83576040517f08c379a0000000000000000000000000000000000000000000000000000000008152600401610f7a90612fd3565b60405180910390fd5b67016345785d8a00003414610fcd576040517f08c379a0000000000000000000000000000000000000000000000000000000008152600401610fc490612e52565b60405180910390fd5b610fd5611262565b50565b5f60055f8473ffffffffffffffffffffffffffffffffffffffff1673ffffffffffffffffffffffffffffffffffffffff1681526020019081526020015f205f8373ffffffffffffffffffffffffffffffffffffffff1673ffffffffffffffffffffffffffffffffffffffff1681526020019081526020015f205f9054906101000a900460ff16905092915050565b61106e6112d8565b5f73ffffffffffffffffffffffffffffffffffffffff168173ffffffffffffffffffffffffffffffffffffffff16036110de575f6040517f1e4fbdf70000000000000000000000000000000000000000000000000000000081526004016110d591906128b2565b60405180910390fd5b6110e7816113c0565b50565b600d5f9054906101000a900460ff1681565b5f7f780e9d63000000000000000000000000000000000000000000000000000000007bffffffffffffffffffffffffffffffffffffffffffffffffffffffff1916827bffffffffffffffffffffffffffffffffffffffffffffffffffffffff1916148061116e575061116d82611956565b5b9050919050565b5f5f61118083611a37565b90505f73ffffffffffffffffffffffffffffffffffffffff168173ffffffffffffffffffffffffffffffffffffffff16036111f257826040517f7e2732890000000000000000000000000000000000000000000000000000000081526004016111e99190612942565b60405180910390fd5b80915050919050565b5f60045f8381526020019081526020015f205f9054906101000a900473ffffffffffffffffffffffffffffffffffffffff169050919050565b5f33905090565b6112488383836001611a70565b505050565b5f611259848484611c2f565b90509392505050565b5f600c5461126e6107ea565b106112ae576040517f08c379a00000000000000000000000000000000000000000000000000000000081526004016112a59061303b565b60405180910390fd5b5f600b5f8154809291906112c190613086565b9190505590506112d13382611c4c565b8091505090565b6112e0611234565b73ffffffffffffffffffffffffffffffffffffffff166112fe610cff565b73ffffffffffffffffffffffffffffffffffffffff161461135d57611321611234565b6040517f118cdaa700000000000000000000000000000000000000000000000000000000815260040161135491906128b2565b60405180910390fd5b565b611367611c69565b5f600a5f6101000a81548160ff0219169083151502179055507f5db9ee0a495bf2e6ff9c91a7834c1ba4fdd244a5e8aa4e537bd38aeae4b073aa6113a9611234565b6040516113b691906128b2565b60405180910390a1565b5f600a60019054906101000a900473ffffffffffffffffffffffffffffffffffffffff16905081600a60016101000a81548173ffffffffffffffffffffffffffffffffffffffff021916908373ffffffffffffffffffffffffffffffffffffffff1602179055508173ffffffffffffffffffffffffffffffffffffffff168173ffffffffffffffffffffffffffffffffffffffff167f8be0079c531659141344cd1fd0a4f28419497f9722a3daafe3b4186f6b6457e060405160405180910390a35050565b61148d611ca9565b6001600a5f6101000a81548160ff0219169083151502179055507f62e78cea01bee320cd4e420270b5ea74000d11b0c9f74754ebdbfc544b05a2586114d0611234565b6040516114dd91906128b2565b60405180910390a1565b5f73ffffffffffffffffffffffffffffffffffffffff168373ffffffffffffffffffffffffffffffffffffffff1603611557575f6040517fa9fbf51f00000000000000000000000000000000000000000000000000000000815260040161154e91906128b2565b60405180910390fd5b5f73ffffffffffffffffffffffffffffffffffffffff168273ffffffffffffffffffffffffffffffffffffffff16036115c757816040517f5b08ba180000000000000000000000000000000000000000000000000000000081526004016115be91906128b2565b60405180910390fd5b8060055f8573ffffffffffffffffffffffffffffffffffffffff1673ffffffffffffffffffffffffffffffffffffffff1681526020019081526020015f205f8473ffffffffffffffffffffffffffffffffffffffff1673ffffffffffffffffffffffffffffffffffffffff1681526020019081526020015f205f6101000a81548160ff0219169083151502179055508173ffffffffffffffffffffffffffffffffffffffff168373ffffffffffffffffffffffffffffffffffffffff167f17307eab39ab6107e8899845ad3d59bd9653f200f220920489ca2b5937696c31836040516116b3919061276c565b60405180910390a3505050565b5f8373ffffffffffffffffffffffffffffffffffffffff163b1115611865578273ffffffffffffffffffffffffffffffffffffffff1663150b7a02868685856040518563ffffffff1660e01b815260040161171e949392919061311f565b6020604051808303815f875af192505050801561175957506040513d601f19601f82011682018060405250810190611756919061317d565b60015b6117da573d805f8114611787576040519150601f19603f3d011682016040523d82523d5f602084013e61178c565b606091505b505f8151036117d257836040517f64a0ae920000000000000000000000000000000000000000000000000000000081526004016117c991906128b2565b60405180910390fd5b805160208201fd5b63150b7a0260e01b7bffffffffffffffffffffffffffffffffffffffffffffffffffffffff1916817bffffffffffffffffffffffffffffffffffffffffffffffffffffffff19161461186357836040517f64a0ae9200000000000000000000000000000000000000000000000000000000815260040161185a91906128b2565b60405180910390fd5b505b5050505050565b606060405180606001604052806036815260200161323660369139905090565b60605f600161189a84611cea565b0190505f8167ffffffffffffffff8111156118b8576118b7612aee565b5b6040519080825280601f01601f1916602001820160405280156118ea5781602001600182028036833780820191505090505b5090505f82602083010190505b60011561194b578080600190039150507f3031323334353637383961626364656600000000000000000000000000000000600a86061a8153600a85816119405761193f6131a8565b5b0494505f85036118f7575b819350505050919050565b5f7f80ac58cd000000000000000000000000000000000000000000000000000000007bffffffffffffffffffffffffffffffffffffffffffffffffffffffff1916827bffffffffffffffffffffffffffffffffffffffffffffffffffffffff19161480611a2057507f5b5e139f000000000000000000000000000000000000000000000000000000007bffffffffffffffffffffffffffffffffffffffffffffffffffffffff1916827bffffffffffffffffffffffffffffffffffffffffffffffffffffffff1916145b80611a305750611a2f82611e3b565b5b9050919050565b5f60025f8381526020019081526020015f205f9054906101000a900473ffffffffffffffffffffffffffffffffffffffff169050919050565b8080611aa857505f73ffffffffffffffffffffffffffffffffffffffff168273ffffffffffffffffffffffffffffffffffffffff1614155b15611bda575f611ab784611175565b90505f73ffffffffffffffffffffffffffffffffffffffff168373ffffffffffffffffffffffffffffffffffffffff1614158015611b2157508273ffffffffffffffffffffffffffffffffffffffff168173ffffffffffffffffffffffffffffffffffffffff1614155b8015611b345750611b328184610fd8565b155b15611b7657826040517fa9fbf51f000000000000000000000000000000000000000000000000000000008152600401611b6d91906128b2565b60405180910390fd5b8115611bd857838573ffffffffffffffffffffffffffffffffffffffff168273ffffffffffffffffffffffffffffffffffffffff167f8c5be1e5ebec7d5bd14f71427d1e84f3dd0314c0f7b2291e5b200ac8c7c3b92560405160405180910390a45b505b8360045f8581526020019081526020015f205f6101000a81548173ffffffffffffffffffffffffffffffffffffffff021916908373ffffffffffffffffffffffffffffffffffffffff16021790555050505050565b5f611c38611ca9565b611c43848484611ea4565b90509392505050565b611c65828260405180602001604052805f815250611fbe565b5050565b611c71610be1565b611ca7576040517f8dfc202b00000000000000000000000000000000000000000000000000000000815260040160405180910390fd5b565b611cb1610be1565b15611ce8576040517fd93c066500000000000000000000000000000000000000000000000000000000815260040160405180910390fd5b565b5f5f5f90507a184f03e93ff9f4daa797ed6e38ed64bf6a1f0100000000000000008310611d46577a184f03e93ff9f4daa797ed6e38ed64bf6a1f0100000000000000008381611d3c57611d3b6131a8565b5b0492506040810190505b6d04ee2d6d415b85acef81000000008310611d83576d04ee2d6d415b85acef81000000008381611d7957611d786131a8565b5b0492506020810190505b662386f26fc100008310611db257662386f26fc100008381611da857611da76131a8565b5b0492506010810190505b6305f5e1008310611ddb576305f5e1008381611dd157611dd06131a8565b5b0492506008810190505b6127108310611e00576127108381611df657611df56131a8565b5b0492506004810190505b60648310611e235760648381611e1957611e186131a8565b5b0492506002810190505b600a8310611e32576001810190505b80915050919050565b5f7f01ffc9a7000000000000000000000000000000000000000000000000000000007bffffffffffffffffffffffffffffffffffffffffffffffffffffffff1916827bffffffffffffffffffffffffffffffffffffffffffffffffffffffff1916149050919050565b5f5f611eb1858585611fe1565b90505f73ffffffffffffffffffffffffffffffffffffffff168173ffffffffffffffffffffffffffffffffffffffff1603611ef457611eef846121ec565b611f33565b8473ffffffffffffffffffffffffffffffffffffffff168173ffffffffffffffffffffffffffffffffffffffff1614611f3257611f318185612230565b5b5b5f73ffffffffffffffffffffffffffffffffffffffff168573ffffffffffffffffffffffffffffffffffffffff1603611f7457611f6f84612307565b611fb3565b8473ffffffffffffffffffffffffffffffffffffffff168173ffffffffffffffffffffffffffffffffffffffff1614611fb257611fb185856123c7565b5b5b809150509392505050565b611fc8838361244b565b611fdc611fd3611234565b5f8585856116c0565b505050565b5f5f611fec84611a37565b90505f73ffffffffffffffffffffffffffffffffffffffff168373ffffffffffffffffffffffffffffffffffffffff161461202d5761202c81848661253e565b5b5f73ffffffffffffffffffffffffffffffffffffffff168173ffffffffffffffffffffffffffffffffffffffff16146120b85761206c5f855f5f611a70565b600160035f8373ffffffffffffffffffffffffffffffffffffffff1673ffffffffffffffffffffffffffffffffffffffff1681526020019081526020015f205f82825403925050819055505b5f73ffffffffffffffffffffffffffffffffffffffff168573ffffffffffffffffffffffffffffffffffffffff161461213757600160035f8773ffffffffffffffffffffffffffffffffffffffff1673ffffffffffffffffffffffffffffffffffffffff1681526020019081526020015f205f82825401925050819055505b8460025f8681526020019081526020015f205f6101000a81548173ffffffffffffffffffffffffffffffffffffffff021916908373ffffffffffffffffffffffffffffffffffffffff160217905550838573ffffffffffffffffffffffffffffffffffffffff168273ffffffffffffffffffffffffffffffffffffffff167fddf252ad1be2c89b69c2b068fc378daa952ba7f163c4a11628f55a4df523b3ef60405160405180910390a4809150509392505050565b60088054905060095f8381526020019081526020015f2081905550600881908060018154018082558091505060019003905f5260205f20015f909190919091505550565b5f61223a83610c07565b90505f60075f8481526020019081526020015f205490505f60065f8673ffffffffffffffffffffffffffffffffffffffff1673ffffffffffffffffffffffffffffffffffffffff1681526020019081526020015f2090508282146122d9575f815f8581526020019081526020015f2054905080825f8581526020019081526020015f20819055508260075f8381526020019081526020015f2081905550505b60075f8581526020019081526020015f205f9055805f8481526020019081526020015f205f90555050505050565b5f600160088054905061231a91906131d5565b90505f60095f8481526020019081526020015f205490505f6008838154811061234657612345612e97565b5b905f5260205f2001549050806008838154811061236657612365612e97565b5b905f5260205f2001819055508160095f8381526020019081526020015f208190555060095f8581526020019081526020015f205f905560088054806123ae576123ad613208565b5b600190038181905f5260205f20015f9055905550505050565b5f60016123d384610c07565b6123dd91906131d5565b90508160065f8573ffffffffffffffffffffffffffffffffffffffff1673ffffffffffffffffffffffffffffffffffffffff1681526020019081526020015f205f8381526020019081526020015f20819055508060075f8481526020019081526020015f2081905550505050565b5f73ffffffffffffffffffffffffffffffffffffffff168273ffffffffffffffffffffffffffffffffffffffff16036124bb575f6040517f64a0ae920000000000000000000000000000000000000000000000000000000081526004016124b291906128b2565b60405180910390fd5b5f6124c783835f61124d565b90505f73ffffffffffffffffffffffffffffffffffffffff168173ffffffffffffffffffffffffffffffffffffffff1614612539575f6040517f73c6ac6e00000000000000000000000000000000000000000000000000000000815260040161253091906128b2565b60405180910390fd5b505050565b612549838383612601565b6125fc575f73ffffffffffffffffffffffffffffffffffffffff168373ffffffffffffffffffffffffffffffffffffffff16036125bd57806040517f7e2732890000000000000000000000000000000000000000000000000000000081526004016125b49190612942565b60405180910390fd5b81816040517f177e802f0000000000000000000000000000000000000000000000000000000081526004016125f3929190612e70565b60405180910390fd5b505050565b5f5f73ffffffffffffffffffffffffffffffffffffffff168373ffffffffffffffffffffffffffffffffffffffff16141580156126b857508273ffffffffffffffffffffffffffffffffffffffff168473ffffffffffffffffffffffffffffffffffffffff16148061267957506126788484610fd8565b5b806126b757508273ffffffffffffffffffffffffffffffffffffffff1661269f836111fb565b73ffffffffffffffffffffffffffffffffffffffff16145b5b90509392505050565b5f604051905090565b5f5ffd5b5f5ffd5b5f7fffffffff0000000000000000000000000000000000000000000000000000000082169050919050565b612706816126d2565b8114612710575f5ffd5b50565b5f81359050612721816126fd565b92915050565b5f6020828403121561273c5761273b6126ca565b5b5f61274984828501612713565b91505092915050565b5f8115159050919050565b61276681612752565b82525050565b5f60208201905061277f5f83018461275d565b92915050565b5f81519050919050565b5f82825260208201905092915050565b8281835e5f83830152505050565b5f601f19601f8301169050919050565b5f6127c782612785565b6127d1818561278f565b93506127e181856020860161279f565b6127ea816127ad565b840191505092915050565b5f6020820190508181035f83015261280d81846127bd565b905092915050565b5f819050919050565b61282781612815565b8114612831575f5ffd5b50565b5f813590506128428161281e565b92915050565b5f6020828403121561285d5761285c6126ca565b5b5f61286a84828501612834565b91505092915050565b5f73ffffffffffffffffffffffffffffffffffffffff82169050919050565b5f61289c82612873565b9050919050565b6128ac81612892565b82525050565b5f6020820190506128c55f8301846128a3565b92915050565b6128d481612892565b81146128de575f5ffd5b50565b5f813590506128ef816128cb565b92915050565b5f5f6040838503121561290b5761290a6126ca565b5b5f612918858286016128e1565b925050602061292985828601612834565b9150509250929050565b61293c81612815565b82525050565b5f6020820190506129555f830184612933565b92915050565b5f5f5f60608486031215612972576129716126ca565b5b5f61297f868287016128e1565b9350506020612990868287016128e1565b92505060406129a186828701612834565b9150509250925092565b5f602082840312156129c0576129bf6126ca565b5b5f6129cd848285016128e1565b91505092915050565b5f5ffd5b5f5ffd5b5f5ffd5b5f5f83601f8401126129f7576129f66129d6565b5b8235905067ffffffffffffffff811115612a1457612a136129da565b5b602083019150836020820283011115612a3057612a2f6129de565b5b9250929050565b5f5f60208385031215612a4d57612a4c6126ca565b5b5f83013567ffffffffffffffff811115612a6a57612a696126ce565b5b612a76858286016129e2565b92509250509250929050565b612a8b81612752565b8114612a95575f5ffd5b50565b5f81359050612aa681612a82565b92915050565b5f5f60408385031215612ac257612ac16126ca565b5b5f612acf858286016128e1565b9250506020612ae085828601612a98565b9150509250929050565b5f5ffd5b7f4e487b71000000000000000000000000000000000000000000000000000000005f52604160045260245ffd5b612b24826127ad565b810181811067ffffffffffffffff82111715612b4357612b42612aee565b5b80604052505050565b5f612b556126c1565b9050612b618282612b1b565b919050565b5f67ffffffffffffffff821115612b8057612b7f612aee565b5b612b89826127ad565b9050602081019050919050565b828183375f83830152505050565b5f612bb6612bb184612b66565b612b4c565b905082815260208101848484011115612bd257612bd1612aea565b5b612bdd848285612b96565b509392505050565b5f82601f830112612bf957612bf86129d6565b5b8135612c09848260208601612ba4565b91505092915050565b5f5f5f5f60808587031215612c2a57612c296126ca565b5b5f612c37878288016128e1565b9450506020612c48878288016128e1565b9350506040612c5987828801612834565b925050606085013567ffffffffffffffff811115612c7a57612c796126ce565b5b612c8687828801612be5565b91505092959194509250565b5f5f60408385031215612ca857612ca76126ca565b5b5f612cb585828601612a98565b9250506020612cc685828601612a98565b9150509250929050565b5f5f60408385031215612ce657612ce56126ca565b5b5f612cf3858286016128e1565b9250506020612d04858286016128e1565b9150509250929050565b7f4e487b71000000000000000000000000000000000000000000000000000000005f52602260045260245ffd5b5f6002820490506001821680612d5257607f821691505b602082108103612d6557612d64612d0e565b5b50919050565b5f606082019050612d7e5f8301866128a3565b612d8b6020830185612933565b612d9860408301846128a3565b949350505050565b7f5055424c49434c495354204d494e5420434c4f534544000000000000000000005f82015250565b5f612dd460168361278f565b9150612ddf82612da0565b602082019050919050565b5f6020820190508181035f830152612e0181612dc8565b9050919050565b7f4e4f5420454e4f5547482046554e4453000000000000000000000000000000005f82015250565b5f612e3c60108361278f565b9150612e4782612e08565b602082019050919050565b5f6020820190508181035f830152612e6981612e30565b9050919050565b5f604082019050612e835f8301856128a3565b612e906020830184612933565b9392505050565b7f4e487b71000000000000000000000000000000000000000000000000000000005f52603260045260245ffd5b5f81905092915050565b5f612ed882612785565b612ee28185612ec4565b9350612ef281856020860161279f565b80840191505092915050565b5f612f098285612ece565b9150612f158284612ece565b91508190509392505050565b7f414c4c4f57204c495354204d494e5420434c4f534544000000000000000000005f82015250565b5f612f5560168361278f565b9150612f6082612f21565b602082019050919050565b5f6020820190508181035f830152612f8281612f49565b9050919050565b7f594f5520415245204e4f5420494e20414c4c4f57204c495354200000000000005f82015250565b5f612fbd601a8361278f565b9150612fc882612f89565b602082019050919050565b5f6020820190508181035f830152612fea81612fb1565b9050919050565b7f574520534f4c44204f55540000000000000000000000000000000000000000005f82015250565b5f613025600b8361278f565b915061303082612ff1565b602082019050919050565b5f6020820190508181035f83015261305281613019565b9050919050565b7f4e487b71000000000000000000000000000000000000000000000000000000005f52601160045260245ffd5b5f61309082612815565b91507fffffffffffffffffffffffffffffffffffffffffffffffffffffffffffffffff82036130c2576130c1613059565b5b600182019050919050565b5f81519050919050565b5f82825260208201905092915050565b5f6130f1826130cd565b6130fb81856130d7565b935061310b81856020860161279f565b613114816127ad565b840191505092915050565b5f6080820190506131325f8301876128a3565b61313f60208301866128a3565b61314c6040830185612933565b818103606083015261315e81846130e7565b905095945050505050565b5f81519050613177816126fd565b92915050565b5f60208284031215613192576131916126ca565b5b5f61319f84828501613169565b91505092915050565b7f4e487b71000000000000000000000000000000000000000000000000000000005f52601260045260245ffd5b5f6131df82612815565b91506131ea83612815565b925082820390508181111561320257613201613059565b5b92915050565b7f4e487b71000000000000000000000000000000000000000000000000000000005f52603160045260245ffdfe697066733a2f2f516d593572507147544e31725a784d516732417069535a63374a69424e73317279447a58505a705168433169626d2fa26469706673582212200eaab064a73962cb43a91a5eb29fd980a70da811c9c4551f1ed6fd9e124cb57a64736f6c63430008210033","linkReferences":{}},"methodIdentifiers":{"Allowlistmint(address)":"87aeb092","allowlistmint()":"e148f5ed","allowlistmintopen()":"b14f316b","approve(address,uint256)":"095ea7b3","balanceOf(address)":"70a08231","editmintwindow(bool,bool)":"d5e4a93d","getApproved(uint256)":"081812fc","isApprovedForAll(address,address)":"e985e9c5","maxsupply()":"4b6406d1","name()":"06fdde03","owner()":"8da5cb5b","ownerOf(uint256)":"6352211e","pause()":"8456cb59","paused()":"5c975abb","publicMint()":"26092b83","publicMintopen()":"f51c24d9","renounceOwnership()":"715018a6","safeTransferFrom(address,address,uint256)":"42842e0e","safeTransferFrom(address,address,uint256,bytes)":"b88d4fde","setAllowlist(address[])":"552b818b","setApprovalForAll(address,bool)":"a22cb465","supportsInterface(bytes4)":"01ffc9a7","symbol()":"95d89b41","tokenByIndex(uint256)":"4f6ccce7","tokenOfOwnerByIndex(address,uint256)":"2f745c59","tokenURI(uint256)":"c87b56dd","totalSupply()":"18160ddd","transferFrom(address,address,uint256)":"23b872dd","transferOwnership(address)":"f2fde38b","unpause()":"3f4ba83a","withdraw(address)":"51cff8d9"},"id":20}