{"abi":[{"type":"constructor","inputs":[{"name":"initialOwner","type":"address","internalType":"address"}],"stateMutability":"nonpayable"},{"type":"function","name":"balanceOf","inputs":[{"name":"account","type":"address","internalType":"address"},{"name":"id","type":"uint256","internalType":"uint256"}],"outputs":[{"name":"","type":"uint256","internalType":"uint256"}],"stateMutability":"view"},{"type":"function","name":"balanceOfBatch","inputs":[{"name":"accounts","type":"address[]","internalType":"address[]"},{"name":"ids","type":"uint256[]","internalType":"uint256[]"}],"outputs":[{"name":"","type":"uint256[]","internalType":"uint256[]"}],"stateMutability":"view"},{"type":"function","name":"exists","inputs":[{"name":"id","type":"uint256","internalType":"uint256"}],"outputs":[{"name":"","type":"bool","internalType":"bool"}],"stateMutability":"view"},{"type":"function","name":"isApprovedForAll","inputs":[{"name":"account","type":"address","internalType":"address"},{"name":"operator","type":"address","internalType":"address"}],"outputs":[{"name":"","type":"bool","internalType":"bool"}],"stateMutability":"view"},{"type":"function","name":"maxsupply","inputs":[],"outputs":[{"name":"","type":"uint256","internalType":"uint256"}],"stateMutability":"view"},{"type":"function","name":"mint","inputs":[{"name":"id","type":"uint256","internalType":"uint256"},{"name":"amount","type":"uint256","internalType":"uint256"}],"outputs":[],"stateMutability":"payable"},{"type":"function","name":"mintBatch","inputs":[{"name":"to","type":"address","internalType":"address"},{"name":"ids","type":"uint256[]","internalType":"uint256[]"},{"name":"amounts","type":"uint256[]","internalType":"uint256[]"},{"name":"data","type":"bytes","internalType":"bytes"}],"outputs":[],"stateMutability":"nonpayable"},{"type":"function","name":"owner","inputs":[],"outputs":[{"name":"","type":"address","internalType":"address"}],"stateMutability":"view"},{"type":"function","name":"pause","inputs":[],"outputs":[],"stateMutability":"nonpayable"},{"type":"function","name":"paused","inputs":[],"outputs":[{"name":"","type":"bool","internalType":"bool"}],"stateMutability":"view"},{"type":"function","name":"publicprice","inputs":[],"outputs":[{"name":"","type":"uint256","internalType":"uint256"}],"stateMutability":"view"},{"type":"function","name":"renounceOwnership","inputs":[],"outputs":[],"stateMutability":"nonpayable"},{"type":"function","name":"safeBatchTransferFrom","inputs":[{"name":"from","type":"address","internalType":"address"},{"name":"to","type":"address","internalType":"address"},{"name":"ids","type":"uint256[]","internalType":"uint256[]"},{"name":"values","type":"uint256[]","internalType":"uint256[]"},{"name":"data","type":"bytes","internalType":"bytes"}],"outputs":[],"stateMutability":"nonpayable"},{"type":"function","name":"safeTransferFrom","inputs":[{"name":"from","type":"address","internalType":"address"},{"name":"to","type":"address","internalType":"address"},{"name":"id","type":"uint256","internalType":"uint256"},{"name":"value","type":"uint256","internalType":"uint256"},{"name":"data","type":"bytes","internalType":"bytes"}],"outputs":[],"stateMutability":"nonpayable"},{"type":"function","name":"setApprovalForAll","inputs":[{"name":"operator","type":"address","internalType":"address"},{"name":"approved","type":"bool","internalType":"bool"}],"outputs":[],"stateMutability":"nonpayable"},{"type":"function","name":"setURI","inputs":[{"name":"newuri","type":"string","internalType":"string"}],"outputs":[],"stateMutability":"nonpayable"},{"type":"function","name":"supportsInterface","inputs":[{"name":"interfaceId","type":"bytes4","internalType":"bytes4"}],"outputs":[{"name":"","type":"bool","internalType":"bool"}],"stateMutability":"view"},{"type":"function","name":"totalSupply","inputs":[],"outputs":[{"name":"","type":"uint256","internalType":"uint256"}],"stateMutability":"view"},{"type":"function","name":"totalSupply","inputs":[{"name":"id","type":"uint256","internalType":"uint256"}],"outputs":[{"name":"","type":"uint256","internalType":"uint256"}],"stateMutability":"view"},{"type":"function","name":"transferOwnership","inputs":[{"name":"newOwner","type":"address","internalType":"address"}],"outputs":[],"stateMutability":"nonpayable"},{"type":"function","name":"unpause","inputs":[],"outputs":[],"stateMutability":"nonpayable"},{"type":"function","name":"uri","inputs":[{"name":"","type":"uint256","internalType":"uint256"}],"outputs":[{"name":"","type":"string","internalType":"string"}],"stateMutability":"view"},{"type":"event","name":"ApprovalForAll","inputs":[{"name":"account","type":"address","indexed":true,"internalType":"address"},{"name":"operator","type":"address","indexed":true,"internalType":"address"},{"name":"approved","type":"bool","indexed":false,"internalType":"bool"}],"anonymous":false},{"type":"event","name":"OwnershipTransferred","inputs":[{"name":"previousOwner","type":"address","indexed":true,"internalType":"address"},{"name":"newOwner","type":"address","indexed":true,"internalType":"address"}],"anonymous":false},{"type":"event","name":"Paused","inputs":[{"name":"account","type":"address","indexed":false,"internalType":"address"}],"anonymous":false},{"type":"event","name":"TransferBatch","inputs":[{"name":"operator","type":"address","indexed":true,"internalType":"address"},{"name":"from","type":"address","indexed":true,"internalType":"address"},{"name":"to","type":"address","indexed":true,"internalType":"address"},{"name":"ids","type":"uint256[]","indexed":false,"internalType":"uint256[]"},{"name":"values","type":"uint256[]","indexed":false,"internalType":"uint256[]"}],"anonymous":false},{"type":"event","name":"TransferSingle","inputs":[{"name":"operator","type":"address","indexed":true,"internalType":"address"},{"name":"from","type":"address","indexed":true,"internalType":"address"},{"name":"to","type":"address","indexed":true,"internalType":"address"},{"name":"id","type":"uint256","indexed":false,"internalType":"uint256"},{"name":"value","type":"uint256","indexed":false,"internalType":"uint256"}],"anonymous":false},{"type":"event","name":"URI","inputs":[{"name":"value","type":"string","indexed":false,"internalType":"string"},{"name":"id","type":"uint256","indexed":true,"internalType":"uint256"}],"anonymous":false},{"type":"event","name":"Unpaused","inputs":[{"name":"account","type":"address","indexed":false,"internalType":"address"}],"anonymous":false},{"type":"error","name":"ERC1155InsufficientBalance","inputs":[{"name":"sender","type":"address","internalType":"address"},{"name":"balance","type":"uint256","internalType":"uint256"},{"name":"needed","type":"uint256","internalType":"uint256"},{"name":"tokenId","type":"uint256","internalType":"uint256"}]},{"type":"error","name":"ERC1155InvalidApprover","inputs":[{"name":"approver","type":"address","internalType":"address"}]},{"type":"error","name":"ERC1155InvalidArrayLength","inputs":[{"name":"idsLength","type":"uint256","internalType":"uint256"},{"name":"valuesLength","type":"uint256","internalType":"uint256"}]},{"type":"error","name":"ERC1155InvalidOperator","inputs":[{"name":"operator","type":"address","internalType":"address"}]},{"type":"error","name":"ERC1155InvalidReceiver","inputs":[{"name":"receiver","type":"address","internalType":"address"}]},{"type":"error","name":"ERC1155InvalidSender","inputs":[{"name":"sender","type":"address","internalType":"address"}]},{"type":"error","name":"ERC1155MissingApprovalForAll","inputs":[{"name":"operator","type":"address","internalType":"address"},{"name":"owner","type":"address","internalType":"address"}]},{"type":"error","name":"EnforcedPause","inputs":[]},{"type":"error","name":"ExpectedPause","inputs":[]},{"type":"error","name":"OwnableInvalidOwner","inputs":[{"name":"owner","type":"address","internalType":"address"}]},{"type":"error","name":"OwnableUnauthorizedAccount","inputs":[{"name":"account","type":"address","internalType":"address"}]}],"bytecode":{"object":"0x6080604052662386f26fc10000600655611388600755348015610020575f5ffd5b5060405161347d38038061347d83398181016040528101906100429190610240565b806040518060600160405280603681526020016134476036913961006b8161010c60201b60201c565b505f73ffffffffffffffffffffffffffffffffffffffff168173ffffffffffffffffffffffffffffffffffffffff16036100dc575f6040517f1e4fbdf70000000000000000000000000000000000000000000000000000000081526004016100d3919061027a565b60405180910390fd5b6100eb8161011f60201b60201c565b505f600360146101000a81548160ff021916908315150217905550506105b0565b806002908161011b91906104e1565b5050565b5f60035f9054906101000a900473ffffffffffffffffffffffffffffffffffffffff1690508160035f6101000a81548173ffffffffffffffffffffffffffffffffffffffff021916908373ffffffffffffffffffffffffffffffffffffffff1602179055508173ffffffffffffffffffffffffffffffffffffffff168173ffffffffffffffffffffffffffffffffffffffff167f8be0079c531659141344cd1fd0a4f28419497f9722a3daafe3b4186f6b6457e060405160405180910390a35050565b5f5ffd5b5f73ffffffffffffffffffffffffffffffffffffffff82169050919050565b5f61020f826101e6565b9050919050565b61021f81610205565b8114610229575f5ffd5b50565b5f8151905061023a81610216565b92915050565b5f60208284031215610255576102546101e2565b5b5f6102628482850161022c565b91505092915050565b61027481610205565b82525050565b5f60208201905061028d5f83018461026b565b92915050565b5f81519050919050565b7f4e487b71000000000000000000000000000000000000000000000000000000005f52604160045260245ffd5b7f4e487b71000000000000000000000000000000000000000000000000000000005f52602260045260245ffd5b5f600282049050600182168061030e57607f821691505b602082108103610321576103206102ca565b5b50919050565b5f819050815f5260205f209050919050565b5f6020601f8301049050919050565b5f82821b905092915050565b5f600883026103837fffffffffffffffffffffffffffffffffffffffffffffffffffffffffffffffff82610348565b61038d8683610348565b95508019841693508086168417925050509392505050565b5f819050919050565b5f819050919050565b5f6103d16103cc6103c7846103a5565b6103ae565b6103a5565b9050919050565b5f819050919050565b6103ea836103b7565b6103fe6103f6826103d8565b848454610354565b825550505050565b5f5f905090565b610415610406565b6104208184846103e1565b505050565b5f5b828110156104465761043b5f82840161040d565b600181019050610427565b505050565b601f82111561049957828211156104985761046581610327565b61046e83610339565b61047785610339565b6020861015610484575f90505b80830161049382840382610425565b505050505b5b505050565b5f82821c905092915050565b5f6104b95f198460080261049e565b1980831691505092915050565b5f6104d183836104aa565b9150826002028217905092915050565b6104ea82610293565b67ffffffffffffffff8111156105035761050261029d565b5b61050d82546102f7565b61051882828561044b565b5f60209050601f831160018114610549575f8415610537578287015190505b61054185826104c6565b8655506105a8565b601f19841661055786610327565b5f5b8281101561057e57848901518255600182019150602085019450602081019050610559565b8683101561059b5784890151610597601f8916826104aa565b8355505b6001600288020188555050505b505050505050565b612e8a806105bd5f395ff3fe608060405260043610610133575f3560e01c80634e1273f4116100aa5780638da5cb5b1161006e5780638da5cb5b146103e1578063a22cb4651461040b578063bd85b03914610433578063e985e9c51461046f578063f242432a146104ab578063f2fde38b146104d357610133565b80634e1273f4146103135780634f558e791461034f5780635c975abb1461038b578063715018a6146103b55780638456cb59146103cb57610133565b80631b2ef1ca116100fc5780631b2ef1ca1461023d5780631f7fdffa146102595780632eb2c2d6146102815780633f4ba83a146102a957806348787ca3146102bf5780634b6406d1146102e957610133565b8062fdd58e1461013757806301ffc9a71461017357806302fe5305146101af5780630e89341c146101d757806318160ddd14610213575b5f5ffd5b348015610142575f5ffd5b5061015d60048036038101906101589190611dc1565b6104fb565b60405161016a9190611e0e565b60405180910390f35b34801561017e575f5ffd5b5061019960048036038101906101949190611e7c565b610550565b6040516101a69190611ec1565b60405180910390f35b3480156101ba575f5ffd5b506101d560048036038101906101d09190612016565b610631565b005b3480156101e2575f5ffd5b506101fd60048036038101906101f8919061205d565b610645565b60405161020a91906120e8565b60405180910390f35b34801561021e575f5ffd5b506102276106d7565b6040516102349190611e0e565b60405180910390f35b61025760048036038101906102529190612108565b6106e0565b005b348015610264575f5ffd5b5061027f600480360381019061027a91906122a8565b6107a5565b005b34801561028c575f5ffd5b506102a760048036038101906102a29190612360565b6107bf565b005b3480156102b4575f5ffd5b506102bd610866565b005b3480156102ca575f5ffd5b506102d3610878565b6040516102e09190611e0e565b60405180910390f35b3480156102f4575f5ffd5b506102fd61087e565b60405161030a9190611e0e565b60405180910390f35b34801561031e575f5ffd5b50610339600480360381019061033491906124eb565b610884565b6040516103469190612618565b60405180910390f35b34801561035a575f5ffd5b506103756004803603810190610370919061205d565b61098e565b6040516103829190611ec1565b60405180910390f35b348015610396575f5ffd5b5061039f6109a1565b6040516103ac9190611ec1565b60405180910390f35b3480156103c0575f5ffd5b506103c96109b7565b005b3480156103d6575f5ffd5b506103df6109ca565b005b3480156103ec575f5ffd5b506103f56109dc565b6040516104029190612647565b60405180910390f35b348015610416575f5ffd5b50610431600480360381019061042c919061268a565b610a04565b005b34801561043e575f5ffd5b506104596004803603810190610454919061205d565b610a1a565b6040516104669190611e0e565b60405180910390f35b34801561047a575f5ffd5b50610495600480360381019061049091906126c8565b610a34565b6040516104a29190611ec1565b60405180910390f35b3480156104b6575f5ffd5b506104d160048036038101906104cc9190612706565b610ac2565b005b3480156104de575f5ffd5b506104f960048036038101906104f49190612799565b610b69565b005b5f5f5f8381526020019081526020015f205f8473ffffffffffffffffffffffffffffffffffffffff1673ffffffffffffffffffffffffffffffffffffffff1681526020019081526020015f2054905092915050565b5f7fd9b67a26000000000000000000000000000000000000000000000000000000007bffffffffffffffffffffffffffffffffffffffffffffffffffffffff1916827bffffffffffffffffffffffffffffffffffffffffffffffffffffffff1916148061061a57507f0e89341c000000000000000000000000000000000000000000000000000000007bffffffffffffffffffffffffffffffffffffffffffffffffffffffff1916827bffffffffffffffffffffffffffffffffffffffffffffffffffffffff1916145b8061062a575061062982610bed565b5b9050919050565b610639610c56565b61064281610cdd565b50565b606060028054610654906127f1565b80601f0160208091040260200160405190810160405280929190818152602001828054610680906127f1565b80156106cb5780601f106106a2576101008083540402835291602001916106cb565b820191905f5260205f20905b8154815290600101906020018083116106ae57829003601f168201915b50505050509050919050565b5f600554905090565b806006546106ee919061284e565b341461072f576040517f08c379a0000000000000000000000000000000000000000000000000000000008152600401610726906128d9565b60405180910390fd5b6007548161073c84610a1a565b61074691906128f7565b1115610787576040517f08c379a000000000000000000000000000000000000000000000000000000000815260040161077e90612974565b60405180910390fd5b6107a133838360405180602001604052805f815250610cf0565b5050565b6107ad610c56565b6107b984848484610d85565b50505050565b5f6107c8610e08565b90508073ffffffffffffffffffffffffffffffffffffffff168673ffffffffffffffffffffffffffffffffffffffff161415801561080d575061080b8682610a34565b155b156108515780866040517fe237d922000000000000000000000000000000000000000000000000000000008152600401610848929190612992565b60405180910390fd5b61085e8686868686610e0f565b505050505050565b61086e610c56565b610876610f03565b565b60065481565b60075481565b606081518351146108d057815183516040517f5b0599910000000000000000000000000000000000000000000000000000000081526004016108c79291906129b9565b60405180910390fd5b5f835167ffffffffffffffff8111156108ec576108eb611ef2565b5b60405190808252806020026020018201604052801561091a5781602001602082028036833780820191505090505b5090505f5f90505b8451811015610983576109596109418287610f6590919063ffffffff16565b6109548387610f7890919063ffffffff16565b6104fb565b82828151811061096c5761096b6129e0565b5b602002602001018181525050806001019050610922565b508091505092915050565b5f5f61099983610a1a565b119050919050565b5f600360149054906101000a900460ff16905090565b6109bf610c56565b6109c85f610f8b565b565b6109d2610c56565b6109da61104e565b565b5f60035f9054906101000a900473ffffffffffffffffffffffffffffffffffffffff16905090565b610a16610a0f610e08565b83836110b1565b5050565b5f60045f8381526020019081526020015f20549050919050565b5f60015f8473ffffffffffffffffffffffffffffffffffffffff1673ffffffffffffffffffffffffffffffffffffffff1681526020019081526020015f205f8373ffffffffffffffffffffffffffffffffffffffff1673ffffffffffffffffffffffffffffffffffffffff1681526020019081526020015f205f9054906101000a900460ff16905092915050565b5f610acb610e08565b90508073ffffffffffffffffffffffffffffffffffffffff168673ffffffffffffffffffffffffffffffffffffffff1614158015610b105750610b0e8682610a34565b155b15610b545780866040517fe237d922000000000000000000000000000000000000000000000000000000008152600401610b4b929190612992565b60405180910390fd5b610b61868686868661121a565b505050505050565b610b71610c56565b5f73ffffffffffffffffffffffffffffffffffffffff168173ffffffffffffffffffffffffffffffffffffffff1603610be1575f6040517f1e4fbdf7000000000000000000000000000000000000000000000000000000008152600401610bd89190612647565b60405180910390fd5b610bea81610f8b565b50565b5f7f01ffc9a7000000000000000000000000000000000000000000000000000000007bffffffffffffffffffffffffffffffffffffffffffffffffffffffff1916827bffffffffffffffffffffffffffffffffffffffffffffffffffffffff1916149050919050565b610c5e610e08565b73ffffffffffffffffffffffffffffffffffffffff16610c7c6109dc565b73ffffffffffffffffffffffffffffffffffffffff1614610cdb57610c9f610e08565b6040517f118cdaa7000000000000000000000000000000000000000000000000000000008152600401610cd29190612647565b60405180910390fd5b565b8060029081610cec9190612bbe565b5050565b5f73ffffffffffffffffffffffffffffffffffffffff168473ffffffffffffffffffffffffffffffffffffffff1603610d60575f6040517f57f447ce000000000000000000000000000000000000000000000000000000008152600401610d579190612647565b60405180910390fd5b5f5f610d6c8585611320565b91509150610d7d5f87848487611350565b505050505050565b5f73ffffffffffffffffffffffffffffffffffffffff168473ffffffffffffffffffffffffffffffffffffffff1603610df5575f6040517f57f447ce000000000000000000000000000000000000000000000000000000008152600401610dec9190612647565b60405180910390fd5b610e025f85858585611350565b50505050565b5f33905090565b5f73ffffffffffffffffffffffffffffffffffffffff168473ffffffffffffffffffffffffffffffffffffffff1603610e7f575f6040517f57f447ce000000000000000000000000000000000000000000000000000000008152600401610e769190612647565b60405180910390fd5b5f73ffffffffffffffffffffffffffffffffffffffff168573ffffffffffffffffffffffffffffffffffffffff1603610eef575f6040517f01a83514000000000000000000000000000000000000000000000000000000008152600401610ee69190612647565b60405180910390fd5b610efc8585858585611350565b5050505050565b610f0b6113fc565b5f600360146101000a81548160ff0219169083151502179055507f5db9ee0a495bf2e6ff9c91a7834c1ba4fdd244a5e8aa4e537bd38aeae4b073aa610f4e610e08565b604051610f5b9190612647565b60405180910390a1565b5f60208202602084010151905092915050565b5f60208202602084010151905092915050565b5f60035f9054906101000a900473ffffffffffffffffffffffffffffffffffffffff1690508160035f6101000a81548173ffffffffffffffffffffffffffffffffffffffff021916908373ffffffffffffffffffffffffffffffffffffffff1602179055508173ffffffffffffffffffffffffffffffffffffffff168173ffffffffffffffffffffffffffffffffffffffff167f8be0079c531659141344cd1fd0a4f28419497f9722a3daafe3b4186f6b6457e060405160405180910390a35050565b61105661143c565b6001600360146101000a81548160ff0219169083151502179055507f62e78cea01bee320cd4e420270b5ea74000d11b0c9f74754ebdbfc544b05a25861109a610e08565b6040516110a79190612647565b60405180910390a1565b5f73ffffffffffffffffffffffffffffffffffffffff168273ffffffffffffffffffffffffffffffffffffffff1603611121575f6040517fced3e1000000000000000000000000000000000000000000000000000000000081526004016111189190612647565b60405180910390fd5b8060015f8573ffffffffffffffffffffffffffffffffffffffff1673ffffffffffffffffffffffffffffffffffffffff1681526020019081526020015f205f8473ffffffffffffffffffffffffffffffffffffffff1673ffffffffffffffffffffffffffffffffffffffff1681526020019081526020015f205f6101000a81548160ff0219169083151502179055508173ffffffffffffffffffffffffffffffffffffffff168373ffffffffffffffffffffffffffffffffffffffff167f17307eab39ab6107e8899845ad3d59bd9653f200f220920489ca2b5937696c318360405161120d9190611ec1565b60405180910390a3505050565b5f73ffffffffffffffffffffffffffffffffffffffff168473ffffffffffffffffffffffffffffffffffffffff160361128a575f6040517f57f447ce0000000000000000000000000000000000000000000000000000000081526004016112819190612647565b60405180910390fd5b5f73ffffffffffffffffffffffffffffffffffffffff168573ffffffffffffffffffffffffffffffffffffffff16036112fa575f6040517f01a835140000000000000000000000000000000000000000000000000000000081526004016112f19190612647565b60405180910390fd5b5f5f6113068585611320565b915091506113178787848487611350565b50505050505050565b60608060405191506001825283602083015260408201905060018152826020820152604081016040529250929050565b61135c8585858561147d565b5f73ffffffffffffffffffffffffffffffffffffffff168473ffffffffffffffffffffffffffffffffffffffff16146113f5575f611398610e08565b905060018451036113e4575f6113b75f86610f7890919063ffffffff16565b90505f6113cd5f86610f7890919063ffffffff16565b90506113dd83898985858961148f565b50506113f3565b6113f281878787878761163e565b5b505b5050505050565b6114046109a1565b61143a576040517f8dfc202b00000000000000000000000000000000000000000000000000000000815260040160405180910390fd5b565b6114446109a1565b1561147b576040517fd93c066500000000000000000000000000000000000000000000000000000000815260040160405180910390fd5b565b611489848484846117ed565b50505050565b5f8473ffffffffffffffffffffffffffffffffffffffff163b1115611636578373ffffffffffffffffffffffffffffffffffffffff1663f23a6e6187878686866040518663ffffffff1660e01b81526004016114ef959493929190612cdf565b6020604051808303815f875af192505050801561152a57506040513d601f19601f820116820180604052508101906115279190612d4b565b60015b6115ab573d805f8114611558576040519150601f19603f3d011682016040523d82523d5f602084013e61155d565b606091505b505f8151036115a357846040517f57f447ce00000000000000000000000000000000000000000000000000000000815260040161159a9190612647565b60405180910390fd5b805181602001fd5b63f23a6e6160e01b7bffffffffffffffffffffffffffffffffffffffffffffffffffffffff1916817bffffffffffffffffffffffffffffffffffffffffffffffffffffffff19161461163457846040517f57f447ce00000000000000000000000000000000000000000000000000000000815260040161162b9190612647565b60405180910390fd5b505b505050505050565b5f8473ffffffffffffffffffffffffffffffffffffffff163b11156117e5578373ffffffffffffffffffffffffffffffffffffffff1663bc197c8187878686866040518663ffffffff1660e01b815260040161169e959493929190612d76565b6020604051808303815f875af19250505080156116d957506040513d601f19601f820116820180604052508101906116d69190612d4b565b60015b61175a573d805f8114611707576040519150601f19603f3d011682016040523d82523d5f602084013e61170c565b606091505b505f81510361175257846040517f57f447ce0000000000000000000000000000000000000000000000000000000081526004016117499190612647565b60405180910390fd5b805181602001fd5b63bc197c8160e01b7bffffffffffffffffffffffffffffffffffffffffffffffffffffffff1916817bffffffffffffffffffffffffffffffffffffffffffffffffffffffff1916146117e357846040517f57f447ce0000000000000000000000000000000000000000000000000000000081526004016117da9190612647565b60405180910390fd5b505b505050505050565b6117f984848484611976565b5f73ffffffffffffffffffffffffffffffffffffffff168473ffffffffffffffffffffffffffffffffffffffff16036118c2575f5f90505f5f90505b83518110156118a7575f6118528285610f7890919063ffffffff16565b90508060045f61186b8589610f7890919063ffffffff16565b81526020019081526020015f205f82825461188691906128f7565b92505081905550808361189991906128f7565b925050806001019050611835565b508060055f8282546118b991906128f7565b92505081905550505b5f73ffffffffffffffffffffffffffffffffffffffff168373ffffffffffffffffffffffffffffffffffffffff1603611970575f5f90505f5f90505b835181101561195e575f61191b8285610f7890919063ffffffff16565b90508060045f6119348589610f7890919063ffffffff16565b81526020019081526020015f205f82825403925050819055508083019250508060010190506118fe565b508060055f8282540392505081905550505b50505050565b61197e61143c565b61198a84848484611990565b50505050565b80518251146119da57815181516040517f5b0599910000000000000000000000000000000000000000000000000000000081526004016119d19291906129b9565b60405180910390fd5b5f6119e3610e08565b90505f5f90505b8351811015611be2575f611a078286610f7890919063ffffffff16565b90505f611a1d8386610f7890919063ffffffff16565b90505f73ffffffffffffffffffffffffffffffffffffffff168873ffffffffffffffffffffffffffffffffffffffff1614611b40575f5f5f8481526020019081526020015f205f8a73ffffffffffffffffffffffffffffffffffffffff1673ffffffffffffffffffffffffffffffffffffffff1681526020019081526020015f2054905081811015611aec57888183856040517f03dee4c5000000000000000000000000000000000000000000000000000000008152600401611ae39493929190612ddc565b60405180910390fd5b8181035f5f8581526020019081526020015f205f8b73ffffffffffffffffffffffffffffffffffffffff1673ffffffffffffffffffffffffffffffffffffffff1681526020019081526020015f2081905550505b5f73ffffffffffffffffffffffffffffffffffffffff168773ffffffffffffffffffffffffffffffffffffffff1614611bd557805f5f8481526020019081526020015f205f8973ffffffffffffffffffffffffffffffffffffffff1673ffffffffffffffffffffffffffffffffffffffff1681526020019081526020015f205f828254611bcd91906128f7565b925050819055505b50508060010190506119ea565b506001835103611c9d575f611c005f85610f7890919063ffffffff16565b90505f611c165f85610f7890919063ffffffff16565b90508573ffffffffffffffffffffffffffffffffffffffff168773ffffffffffffffffffffffffffffffffffffffff168473ffffffffffffffffffffffffffffffffffffffff167fc3d58168c5ae7397731d063d5bbf3d657854427343f4c083240f7aacaa2d0f628585604051611c8e9291906129b9565b60405180910390a45050611d1c565b8373ffffffffffffffffffffffffffffffffffffffff168573ffffffffffffffffffffffffffffffffffffffff168273ffffffffffffffffffffffffffffffffffffffff167f4a39dc06d4c0dbc64b70af90fd698a233a518aa5d07e595d983b8c0526c8f7fb8686604051611d13929190612e1f565b60405180910390a45b5050505050565b5f604051905090565b5f5ffd5b5f5ffd5b5f73ffffffffffffffffffffffffffffffffffffffff82169050919050565b5f611d5d82611d34565b9050919050565b611d6d81611d53565b8114611d77575f5ffd5b50565b5f81359050611d8881611d64565b92915050565b5f819050919050565b611da081611d8e565b8114611daa575f5ffd5b50565b5f81359050611dbb81611d97565b92915050565b5f5f60408385031215611dd757611dd6611d2c565b5b5f611de485828601611d7a565b9250506020611df585828601611dad565b9150509250929050565b611e0881611d8e565b82525050565b5f602082019050611e215f830184611dff565b92915050565b5f7fffffffff0000000000000000000000000000000000000000000000000000000082169050919050565b611e5b81611e27565b8114611e65575f5ffd5b50565b5f81359050611e7681611e52565b92915050565b5f60208284031215611e9157611e90611d2c565b5b5f611e9e84828501611e68565b91505092915050565b5f8115159050919050565b611ebb81611ea7565b82525050565b5f602082019050611ed45f830184611eb2565b92915050565b5f5ffd5b5f5ffd5b5f601f19601f8301169050919050565b7f4e487b71000000000000000000000000000000000000000000000000000000005f52604160045260245ffd5b611f2882611ee2565b810181811067ffffffffffffffff82111715611f4757611f46611ef2565b5b80604052505050565b5f611f59611d23565b9050611f658282611f1f565b919050565b5f67ffffffffffffffff821115611f8457611f83611ef2565b5b611f8d82611ee2565b9050602081019050919050565b828183375f83830152505050565b5f611fba611fb584611f6a565b611f50565b905082815260208101848484011115611fd657611fd5611ede565b5b611fe1848285611f9a565b509392505050565b5f82601f830112611ffd57611ffc611eda565b5b813561200d848260208601611fa8565b91505092915050565b5f6020828403121561202b5761202a611d2c565b5b5f82013567ffffffffffffffff81111561204857612047611d30565b5b61205484828501611fe9565b91505092915050565b5f6020828403121561207257612071611d2c565b5b5f61207f84828501611dad565b91505092915050565b5f81519050919050565b5f82825260208201905092915050565b8281835e5f83830152505050565b5f6120ba82612088565b6120c48185612092565b93506120d48185602086016120a2565b6120dd81611ee2565b840191505092915050565b5f6020820190508181035f83015261210081846120b0565b905092915050565b5f5f6040838503121561211e5761211d611d2c565b5b5f61212b85828601611dad565b925050602061213c85828601611dad565b9150509250929050565b5f67ffffffffffffffff8211156121605761215f611ef2565b5b602082029050602081019050919050565b5f5ffd5b5f61218761218284612146565b611f50565b905080838252602082019050602084028301858111156121aa576121a9612171565b5b835b818110156121d357806121bf8882611dad565b8452602084019350506020810190506121ac565b5050509392505050565b5f82601f8301126121f1576121f0611eda565b5b8135612201848260208601612175565b91505092915050565b5f67ffffffffffffffff82111561222457612223611ef2565b5b61222d82611ee2565b9050602081019050919050565b5f61224c6122478461220a565b611f50565b90508281526020810184848401111561226857612267611ede565b5b612273848285611f9a565b509392505050565b5f82601f83011261228f5761228e611eda565b5b813561229f84826020860161223a565b91505092915050565b5f5f5f5f608085870312156122c0576122bf611d2c565b5b5f6122cd87828801611d7a565b945050602085013567ffffffffffffffff8111156122ee576122ed611d30565b5b6122fa878288016121dd565b935050604085013567ffffffffffffffff81111561231b5761231a611d30565b5b612327878288016121dd565b925050606085013567ffffffffffffffff81111561234857612347611d30565b5b6123548782880161227b565b91505092959194509250565b5f5f5f5f5f60a0868803121561237957612378611d2c565b5b5f61238688828901611d7a565b955050602061239788828901611d7a565b945050604086013567ffffffffffffffff8111156123b8576123b7611d30565b5b6123c4888289016121dd565b935050606086013567ffffffffffffffff8111156123e5576123e4611d30565b5b6123f1888289016121dd565b925050608086013567ffffffffffffffff81111561241257612411611d30565b5b61241e8882890161227b565b9150509295509295909350565b5f67ffffffffffffffff82111561244557612444611ef2565b5b602082029050602081019050919050565b5f6124686124638461242b565b611f50565b9050808382526020820190506020840283018581111561248b5761248a612171565b5b835b818110156124b457806124a08882611d7a565b84526020840193505060208101905061248d565b5050509392505050565b5f82601f8301126124d2576124d1611eda565b5b81356124e2848260208601612456565b91505092915050565b5f5f6040838503121561250157612500611d2c565b5b5f83013567ffffffffffffffff81111561251e5761251d611d30565b5b61252a858286016124be565b925050602083013567ffffffffffffffff81111561254b5761254a611d30565b5b612557858286016121dd565b9150509250929050565b5f81519050919050565b5f82825260208201905092915050565b5f819050602082019050919050565b61259381611d8e565b82525050565b5f6125a4838361258a565b60208301905092915050565b5f602082019050919050565b5f6125c682612561565b6125d0818561256b565b93506125db8361257b565b805f5b8381101561260b5781516125f28882612599565b97506125fd836125b0565b9250506001810190506125de565b5085935050505092915050565b5f6020820190508181035f83015261263081846125bc565b905092915050565b61264181611d53565b82525050565b5f60208201905061265a5f830184612638565b92915050565b61266981611ea7565b8114612673575f5ffd5b50565b5f8135905061268481612660565b92915050565b5f5f604083850312156126a05761269f611d2c565b5b5f6126ad85828601611d7a565b92505060206126be85828601612676565b9150509250929050565b5f5f604083850312156126de576126dd611d2c565b5b5f6126eb85828601611d7a565b92505060206126fc85828601611d7a565b9150509250929050565b5f5f5f5f5f60a0868803121561271f5761271e611d2c565b5b5f61272c88828901611d7a565b955050602061273d88828901611d7a565b945050604061274e88828901611dad565b935050606061275f88828901611dad565b925050608086013567ffffffffffffffff8111156127805761277f611d30565b5b61278c8882890161227b565b9150509295509295909350565b5f602082840312156127ae576127ad611d2c565b5b5f6127bb84828501611d7a565b91505092915050565b7f4e487b71000000000000000000000000000000000000000000000000000000005f52602260045260245ffd5b5f600282049050600182168061280857607f821691505b60208210810361281b5761281a6127c4565b5b50919050565b7f4e487b71000000000000000000000000000000000000000000000000000000005f52601160045260245ffd5b5f61285882611d8e565b915061286383611d8e565b925082820261287181611d8e565b9150828204841483151761288857612887612821565b5b5092915050565b7f496e73756666696369656e742066756e647300000000000000000000000000005f82015250565b5f6128c3601283612092565b91506128ce8261288f565b602082019050919050565b5f6020820190508181035f8301526128f0816128b7565b9050919050565b5f61290182611d8e565b915061290c83611d8e565b925082820190508082111561292457612923612821565b5b92915050565b7f574520534f4c44204f55540000000000000000000000000000000000000000005f82015250565b5f61295e600b83612092565b91506129698261292a565b602082019050919050565b5f6020820190508181035f83015261298b81612952565b9050919050565b5f6040820190506129a55f830185612638565b6129b26020830184612638565b9392505050565b5f6040820190506129cc5f830185611dff565b6129d96020830184611dff565b9392505050565b7f4e487b71000000000000000000000000000000000000000000000000000000005f52603260045260245ffd5b5f819050815f5260205f209050919050565b5f6020601f8301049050919050565b5f82821b905092915050565b5f60088302612a697fffffffffffffffffffffffffffffffffffffffffffffffffffffffffffffffff82612a2e565b612a738683612a2e565b95508019841693508086168417925050509392505050565b5f819050919050565b5f612aae612aa9612aa484611d8e565b612a8b565b611d8e565b9050919050565b5f819050919050565b612ac783612a94565b612adb612ad382612ab5565b848454612a3a565b825550505050565b5f5f905090565b612af2612ae3565b612afd818484612abe565b505050565b5f5b82811015612b2357612b185f828401612aea565b600181019050612b04565b505050565b601f821115612b765782821115612b7557612b4281612a0d565b612b4b83612a1f565b612b5485612a1f565b6020861015612b61575f90505b808301612b7082840382612b02565b505050505b5b505050565b5f82821c905092915050565b5f612b965f1984600802612b7b565b1980831691505092915050565b5f612bae8383612b87565b9150826002028217905092915050565b612bc782612088565b67ffffffffffffffff811115612be057612bdf611ef2565b5b612bea82546127f1565b612bf5828285612b28565b5f60209050601f831160018114612c26575f8415612c14578287015190505b612c1e8582612ba3565b865550612c85565b601f198416612c3486612a0d565b5f5b82811015612c5b57848901518255600182019150602085019450602081019050612c36565b86831015612c785784890151612c74601f891682612b87565b8355505b6001600288020188555050505b505050505050565b5f81519050919050565b5f82825260208201905092915050565b5f612cb182612c8d565b612cbb8185612c97565b9350612ccb8185602086016120a2565b612cd481611ee2565b840191505092915050565b5f60a082019050612cf25f830188612638565b612cff6020830187612638565b612d0c6040830186611dff565b612d196060830185611dff565b8181036080830152612d2b8184612ca7565b90509695505050505050565b5f81519050612d4581611e52565b92915050565b5f60208284031215612d6057612d5f611d2c565b5b5f612d6d84828501612d37565b91505092915050565b5f60a082019050612d895f830188612638565b612d966020830187612638565b8181036040830152612da881866125bc565b90508181036060830152612dbc81856125bc565b90508181036080830152612dd08184612ca7565b90509695505050505050565b5f608082019050612def5f830187612638565b612dfc6020830186611dff565b612e096040830185611dff565b612e166060830184611dff565b95945050505050565b5f6040820190508181035f830152612e3781856125bc565b90508181036020830152612e4b81846125bc565b9050939250505056fea264697066735822122075c960671eca2f9d220ec60ad9a75dedf84e9d67e4c0458ceee785023c26d32264736f6c63430008210033697066733a2f2f516d61613654755032733970534b637a48463472775768544b556479677272447338526d595971436a50334879652f","linkReferences":{}},"methodIdentifiers":{"balanceOf(address,uint256)":"00fdd58e","balanceOfBatch(address[],uint256[])":"4e1273f4","exists(uint256)":"4f558e79","isApprovedForAll(address,address)":"e985e9c5","maxsupply()":"4b6406d1","mint(uint256,uint256)":"1b2ef1ca","mintBatch(address,uint256[],uint256[],bytes)":"1f7fdffa","owner()":"8da5cb5b","pause()":"8456cb59","paused()":"5c975abb","publicprice()":"48787ca3","renounceOwnership()":"715018a6","safeBatchTransferFrom(address,address,uint256[],uint256[],bytes)":"2eb2c2d6","safeTransferFrom(address,address,uint256,uint256,bytes)":"f242432a","setApprovalForAll(address,bool)":"a22cb465","setURI(string)":"02fe5305","supportsInterface(bytes4)":"01ffc9a7","totalSupply()":"18160ddd","totalSupply(uint256)":"bd85b039","transferOwnership(address)":"f2fde38b","unpause()":"3f4ba83a","uri(uint256)":"0e89341c"},"id":20}