{"abi":[{"type":"constructor","inputs":[{"name":"initialOwner","type":"address","internalType":"address"}],"stateMutability":"nonpayable"},{"type":"function","name":"balanceOf","inputs":[{"name":"account","type":"address","internalType":"address"},{"name":"id","type":"uint256","internalType":"uint256"}],"outputs":[{"name":"","type":"uint256","internalType":"uint256"}],"stateMutability":"view"},{"type":"function","name":"balanceOfBatch","inputs":[{"name":"accounts","type":"address[]","internalType":"address[]"},{"name":"ids","type":"uint256[]","internalType":"uint256[]"}],"outputs":[{"name":"","type":"uint256[]","internalType":"uint256[]"}],"stateMutability":"view"},{"type":"function","name":"exists","inputs":[{"name":"id","type":"uint256","internalType":"uint256"}],"outputs":[{"name":"","type":"bool","internalType":"bool"}],"stateMutability":"view"},{"type":"function","name":"isApprovedForAll","inputs":[{"name":"account","type":"address","internalType":"address"},{"name":"operator","type":"address","internalType":"address"}],"outputs":[{"name":"","type":"bool","internalType":"bool"}],"stateMutability":"view"},{"type":"function","name":"mint","inputs":[{"name":"account","type":"address","internalType":"address"},{"name":"id","type":"uint256","internalType":"uint256"},{"name":"amount","type":"uint256","internalType":"uint256"},{"name":"data","type":"bytes","internalType":"bytes"}],"outputs":[],"stateMutability":"nonpayable"},{"type":"function","name":"mintBatch","inputs":[{"name":"to","type":"address","internalType":"address"},{"name":"ids","type":"uint256[]","internalType":"uint256[]"},{"name":"amounts","type":"uint256[]","internalType":"uint256[]"},{"name":"data","type":"bytes","internalType":"bytes"}],"outputs":[],"stateMutability":"nonpayable"},{"type":"function","name":"owner","inputs":[],"outputs":[{"name":"","type":"address","internalType":"address"}],"stateMutability":"view"},{"type":"function","name":"pause","inputs":[],"outputs":[],"stateMutability":"nonpayable"},{"type":"function","name":"paused","inputs":[],"outputs":[{"name":"","type":"bool","internalType":"bool"}],"stateMutability":"view"},{"type":"function","name":"renounceOwnership","inputs":[],"outputs":[],"stateMutability":"nonpayable"},{"type":"function","name":"safeBatchTransferFrom","inputs":[{"name":"from","type":"address","internalType":"address"},{"name":"to","type":"address","internalType":"address"},{"name":"ids","type":"uint256[]","internalType":"uint256[]"},{"name":"values","type":"uint256[]","internalType":"uint256[]"},{"name":"data","type":"bytes","internalType":"bytes"}],"outputs":[],"stateMutability":"nonpayable"},{"type":"function","name":"safeTransferFrom","inputs":[{"name":"from","type":"address","internalType":"address"},{"name":"to","type":"address","internalType":"address"},{"name":"id","type":"uint256","internalType":"uint256"},{"name":"value","type":"uint256","internalType":"uint256"},{"name":"data","type":"bytes","internalType":"bytes"}],"outputs":[],"stateMutability":"nonpayable"},{"type":"function","name":"setApprovalForAll","inputs":[{"name":"operator","type":"address","internalType":"address"},{"name":"approved","type":"bool","internalType":"bool"}],"outputs":[],"stateMutability":"nonpayable"},{"type":"function","name":"setURI","inputs":[{"name":"newuri","type":"string","internalType":"string"}],"outputs":[],"stateMutability":"nonpayable"},{"type":"function","name":"supportsInterface","inputs":[{"name":"interfaceId","type":"bytes4","internalType":"bytes4"}],"outputs":[{"name":"","type":"bool","internalType":"bool"}],"stateMutability":"view"},{"type":"function","name":"totalSupply","inputs":[],"outputs":[{"name":"","type":"uint256","internalType":"uint256"}],"stateMutability":"view"},{"type":"function","name":"totalSupply","inputs":[{"name":"id","type":"uint256","internalType":"uint256"}],"outputs":[{"name":"","type":"uint256","internalType":"uint256"}],"stateMutability":"view"},{"type":"function","name":"transferOwnership","inputs":[{"name":"newOwner","type":"address","internalType":"address"}],"outputs":[],"stateMutability":"nonpayable"},{"type":"function","name":"unpause","inputs":[],"outputs":[],"stateMutability":"nonpayable"},{"type":"function","name":"uri","inputs":[{"name":"","type":"uint256","internalType":"uint256"}],"outputs":[{"name":"","type":"string","internalType":"string"}],"stateMutability":"view"},{"type":"event","name":"ApprovalForAll","inputs":[{"name":"account","type":"address","indexed":true,"internalType":"address"},{"name":"operator","type":"address","indexed":true,"internalType":"address"},{"name":"approved","type":"bool","indexed":false,"internalType":"bool"}],"anonymous":false},{"type":"event","name":"OwnershipTransferred","inputs":[{"name":"previousOwner","type":"address","indexed":true,"internalType":"address"},{"name":"newOwner","type":"address","indexed":true,"internalType":"address"}],"anonymous":false},{"type":"event","name":"Paused","inputs":[{"name":"account","type":"address","indexed":false,"internalType":"address"}],"anonymous":false},{"type":"event","name":"TransferBatch","inputs":[{"name":"operator","type":"address","indexed":true,"internalType":"address"},{"name":"from","type":"address","indexed":true,"internalType":"address"},{"name":"to","type":"address","indexed":true,"internalType":"address"},{"name":"ids","type":"uint256[]","indexed":false,"internalType":"uint256[]"},{"name":"values","type":"uint256[]","indexed":false,"internalType":"uint256[]"}],"anonymous":false},{"type":"event","name":"TransferSingle","inputs":[{"name":"operator","type":"address","indexed":true,"internalType":"address"},{"name":"from","type":"address","indexed":true,"internalType":"address"},{"name":"to","type":"address","indexed":true,"internalType":"address"},{"name":"id","type":"uint256","indexed":false,"internalType":"uint256"},{"name":"value","type":"uint256","indexed":false,"internalType":"uint256"}],"anonymous":false},{"type":"event","name":"URI","inputs":[{"name":"value","type":"string","indexed":false,"internalType":"string"},{"name":"id","type":"uint256","indexed":true,"internalType":"uint256"}],"anonymous":false},{"type":"event","name":"Unpaused","inputs":[{"name":"account","type":"address","indexed":false,"internalType":"address"}],"anonymous":false},{"type":"error","name":"ERC1155InsufficientBalance","inputs":[{"name":"sender","type":"address","internalType":"address"},{"name":"balance","type":"uint256","internalType":"uint256"},{"name":"needed","type":"uint256","internalType":"uint256"},{"name":"tokenId","type":"uint256","internalType":"uint256"}]},{"type":"error","name":"ERC1155InvalidApprover","inputs":[{"name":"approver","type":"address","internalType":"address"}]},{"type":"error","name":"ERC1155InvalidArrayLength","inputs":[{"name":"idsLength","type":"uint256","internalType":"uint256"},{"name":"valuesLength","type":"uint256","internalType":"uint256"}]},{"type":"error","name":"ERC1155InvalidOperator","inputs":[{"name":"operator","type":"address","internalType":"address"}]},{"type":"error","name":"ERC1155InvalidReceiver","inputs":[{"name":"receiver","type":"address","internalType":"address"}]},{"type":"error","name":"ERC1155InvalidSender","inputs":[{"name":"sender","type":"address","internalType":"address"}]},{"type":"error","name":"ERC1155MissingApprovalForAll","inputs":[{"name":"operator","type":"address","internalType":"address"},{"name":"owner","type":"address","internalType":"address"}]},{"type":"error","name":"EnforcedPause","inputs":[]},{"type":"error","name":"ExpectedPause","inputs":[]},{"type":"error","name":"OwnableInvalidOwner","inputs":[{"name":"owner","type":"address","internalType":"address"}]},{"type":"error","name":"OwnableUnauthorizedAccount","inputs":[{"name":"account","type":"address","internalType":"address"}]}],"bytecode":{"object":"0x608060405234801561000f575f5ffd5b506040516131a43803806131a48339818101604052810190610031919061022f565b8060405180606001604052806036815260200161316e6036913961005a816100fb60201b60201c565b505f73ffffffffffffffffffffffffffffffffffffffff168173ffffffffffffffffffffffffffffffffffffffff16036100cb575f6040517f1e4fbdf70000000000000000000000000000000000000000000000000000000081526004016100c29190610269565b60405180910390fd5b6100da8161010e60201b60201c565b505f600360146101000a81548160ff0219169083151502179055505061059f565b806002908161010a91906104d0565b5050565b5f60035f9054906101000a900473ffffffffffffffffffffffffffffffffffffffff1690508160035f6101000a81548173ffffffffffffffffffffffffffffffffffffffff021916908373ffffffffffffffffffffffffffffffffffffffff1602179055508173ffffffffffffffffffffffffffffffffffffffff168173ffffffffffffffffffffffffffffffffffffffff167f8be0079c531659141344cd1fd0a4f28419497f9722a3daafe3b4186f6b6457e060405160405180910390a35050565b5f5ffd5b5f73ffffffffffffffffffffffffffffffffffffffff82169050919050565b5f6101fe826101d5565b9050919050565b61020e816101f4565b8114610218575f5ffd5b50565b5f8151905061022981610205565b92915050565b5f60208284031215610244576102436101d1565b5b5f6102518482850161021b565b91505092915050565b610263816101f4565b82525050565b5f60208201905061027c5f83018461025a565b92915050565b5f81519050919050565b7f4e487b71000000000000000000000000000000000000000000000000000000005f52604160045260245ffd5b7f4e487b71000000000000000000000000000000000000000000000000000000005f52602260045260245ffd5b5f60028204905060018216806102fd57607f821691505b6020821081036103105761030f6102b9565b5b50919050565b5f819050815f5260205f209050919050565b5f6020601f8301049050919050565b5f82821b905092915050565b5f600883026103727fffffffffffffffffffffffffffffffffffffffffffffffffffffffffffffffff82610337565b61037c8683610337565b95508019841693508086168417925050509392505050565b5f819050919050565b5f819050919050565b5f6103c06103bb6103b684610394565b61039d565b610394565b9050919050565b5f819050919050565b6103d9836103a6565b6103ed6103e5826103c7565b848454610343565b825550505050565b5f5f905090565b6104046103f5565b61040f8184846103d0565b505050565b5f5b828110156104355761042a5f8284016103fc565b600181019050610416565b505050565b601f82111561048857828211156104875761045481610316565b61045d83610328565b61046685610328565b6020861015610473575f90505b80830161048282840382610414565b505050505b5b505050565b5f82821c905092915050565b5f6104a85f198460080261048d565b1980831691505092915050565b5f6104c08383610499565b9150826002028217905092915050565b6104d982610282565b67ffffffffffffffff8111156104f2576104f161028c565b5b6104fc82546102e6565b61050782828561043a565b5f60209050601f831160018114610538575f8415610526578287015190505b61053085826104b5565b865550610597565b601f19841661054686610316565b5f5b8281101561056d57848901518255600182019150602085019450602081019050610548565b8683101561058a5784890151610586601f891682610499565b8355505b6001600288020188555050505b505050505050565b612bc2806105ac5f395ff3fe608060405234801561000f575f5ffd5b5060043610610129575f3560e01c80635c975abb116100ab578063a22cb4651161006f578063a22cb46514610305578063bd85b03914610321578063e985e9c514610351578063f242432a14610381578063f2fde38b1461039d57610129565b80635c975abb14610299578063715018a6146102b7578063731133e9146102c15780638456cb59146102dd5780638da5cb5b146102e757610129565b80631f7fdffa116100f25780631f7fdffa146101f75780632eb2c2d6146102135780633f4ba83a1461022f5780634e1273f4146102395780634f558e791461026957610129565b8062fdd58e1461012d57806301ffc9a71461015d57806302fe53051461018d5780630e89341c146101a957806318160ddd146101d9575b5f5ffd5b61014760048036038101906101429190611bc8565b6103b9565b6040516101549190611c15565b60405180910390f35b61017760048036038101906101729190611c83565b61040e565b6040516101849190611cc8565b60405180910390f35b6101a760048036038101906101a29190611e1d565b6104ef565b005b6101c360048036038101906101be9190611e64565b610503565b6040516101d09190611eef565b60405180910390f35b6101e1610595565b6040516101ee9190611c15565b60405180910390f35b610211600480360381019061020c9190612071565b61059e565b005b61022d60048036038101906102289190612129565b6105b8565b005b61023761065f565b005b610253600480360381019061024e91906122b4565b610671565b60405161026091906123e1565b60405180910390f35b610283600480360381019061027e9190611e64565b61077b565b6040516102909190611cc8565b60405180910390f35b6102a161078e565b6040516102ae9190611cc8565b60405180910390f35b6102bf6107a4565b005b6102db60048036038101906102d69190612401565b6107b7565b005b6102e56107d1565b005b6102ef6107e3565b6040516102fc9190612490565b60405180910390f35b61031f600480360381019061031a91906124d3565b61080b565b005b61033b60048036038101906103369190611e64565b610821565b6040516103489190611c15565b60405180910390f35b61036b60048036038101906103669190612511565b61083b565b6040516103789190611cc8565b60405180910390f35b61039b6004803603810190610396919061254f565b6108c9565b005b6103b760048036038101906103b291906125e2565b610970565b005b5f5f5f8381526020019081526020015f205f8473ffffffffffffffffffffffffffffffffffffffff1673ffffffffffffffffffffffffffffffffffffffff1681526020019081526020015f2054905092915050565b5f7fd9b67a26000000000000000000000000000000000000000000000000000000007bffffffffffffffffffffffffffffffffffffffffffffffffffffffff1916827bffffffffffffffffffffffffffffffffffffffffffffffffffffffff191614806104d857507f0e89341c000000000000000000000000000000000000000000000000000000007bffffffffffffffffffffffffffffffffffffffffffffffffffffffff1916827bffffffffffffffffffffffffffffffffffffffffffffffffffffffff1916145b806104e857506104e7826109f4565b5b9050919050565b6104f7610a5d565b61050081610ae4565b50565b6060600280546105129061263a565b80601f016020809104026020016040519081016040528092919081815260200182805461053e9061263a565b80156105895780601f1061056057610100808354040283529160200191610589565b820191905f5260205f20905b81548152906001019060200180831161056c57829003601f168201915b50505050509050919050565b5f600554905090565b6105a6610a5d565b6105b284848484610af7565b50505050565b5f6105c1610b7a565b90508073ffffffffffffffffffffffffffffffffffffffff168673ffffffffffffffffffffffffffffffffffffffff16141580156106065750610604868261083b565b155b1561064a5780866040517fe237d92200000000000000000000000000000000000000000000000000000000815260040161064192919061266a565b60405180910390fd5b6106578686868686610b81565b505050505050565b610667610a5d565b61066f610c75565b565b606081518351146106bd57815183516040517f5b0599910000000000000000000000000000000000000000000000000000000081526004016106b4929190612691565b60405180910390fd5b5f835167ffffffffffffffff8111156106d9576106d8611cf9565b5b6040519080825280602002602001820160405280156107075781602001602082028036833780820191505090505b5090505f5f90505b84518110156107705761074661072e8287610cd790919063ffffffff16565b6107418387610cea90919063ffffffff16565b6103b9565b828281518110610759576107586126b8565b5b60200260200101818152505080600101905061070f565b508091505092915050565b5f5f61078683610821565b119050919050565b5f600360149054906101000a900460ff16905090565b6107ac610a5d565b6107b55f610cfd565b565b6107bf610a5d565b6107cb84848484610dc0565b50505050565b6107d9610a5d565b6107e1610e55565b565b5f60035f9054906101000a900473ffffffffffffffffffffffffffffffffffffffff16905090565b61081d610816610b7a565b8383610eb8565b5050565b5f60045f8381526020019081526020015f20549050919050565b5f60015f8473ffffffffffffffffffffffffffffffffffffffff1673ffffffffffffffffffffffffffffffffffffffff1681526020019081526020015f205f8373ffffffffffffffffffffffffffffffffffffffff1673ffffffffffffffffffffffffffffffffffffffff1681526020019081526020015f205f9054906101000a900460ff16905092915050565b5f6108d2610b7a565b90508073ffffffffffffffffffffffffffffffffffffffff168673ffffffffffffffffffffffffffffffffffffffff16141580156109175750610915868261083b565b155b1561095b5780866040517fe237d92200000000000000000000000000000000000000000000000000000000815260040161095292919061266a565b60405180910390fd5b6109688686868686611021565b505050505050565b610978610a5d565b5f73ffffffffffffffffffffffffffffffffffffffff168173ffffffffffffffffffffffffffffffffffffffff16036109e8575f6040517f1e4fbdf70000000000000000000000000000000000000000000000000000000081526004016109df9190612490565b60405180910390fd5b6109f181610cfd565b50565b5f7f01ffc9a7000000000000000000000000000000000000000000000000000000007bffffffffffffffffffffffffffffffffffffffffffffffffffffffff1916827bffffffffffffffffffffffffffffffffffffffffffffffffffffffff1916149050919050565b610a65610b7a565b73ffffffffffffffffffffffffffffffffffffffff16610a836107e3565b73ffffffffffffffffffffffffffffffffffffffff1614610ae257610aa6610b7a565b6040517f118cdaa7000000000000000000000000000000000000000000000000000000008152600401610ad99190612490565b60405180910390fd5b565b8060029081610af39190612896565b5050565b5f73ffffffffffffffffffffffffffffffffffffffff168473ffffffffffffffffffffffffffffffffffffffff1603610b67575f6040517f57f447ce000000000000000000000000000000000000000000000000000000008152600401610b5e9190612490565b60405180910390fd5b610b745f85858585611127565b50505050565b5f33905090565b5f73ffffffffffffffffffffffffffffffffffffffff168473ffffffffffffffffffffffffffffffffffffffff1603610bf1575f6040517f57f447ce000000000000000000000000000000000000000000000000000000008152600401610be89190612490565b60405180910390fd5b5f73ffffffffffffffffffffffffffffffffffffffff168573ffffffffffffffffffffffffffffffffffffffff1603610c61575f6040517f01a83514000000000000000000000000000000000000000000000000000000008152600401610c589190612490565b60405180910390fd5b610c6e8585858585611127565b5050505050565b610c7d6111d3565b5f600360146101000a81548160ff0219169083151502179055507f5db9ee0a495bf2e6ff9c91a7834c1ba4fdd244a5e8aa4e537bd38aeae4b073aa610cc0610b7a565b604051610ccd9190612490565b60405180910390a1565b5f60208202602084010151905092915050565b5f60208202602084010151905092915050565b5f60035f9054906101000a900473ffffffffffffffffffffffffffffffffffffffff1690508160035f6101000a81548173ffffffffffffffffffffffffffffffffffffffff021916908373ffffffffffffffffffffffffffffffffffffffff1602179055508173ffffffffffffffffffffffffffffffffffffffff168173ffffffffffffffffffffffffffffffffffffffff167f8be0079c531659141344cd1fd0a4f28419497f9722a3daafe3b4186f6b6457e060405160405180910390a35050565b5f73ffffffffffffffffffffffffffffffffffffffff168473ffffffffffffffffffffffffffffffffffffffff1603610e30575f6040517f57f447ce000000000000000000000000000000000000000000000000000000008152600401610e279190612490565b60405180910390fd5b5f5f610e3c8585611213565b91509150610e4d5f87848487611127565b505050505050565b610e5d611243565b6001600360146101000a81548160ff0219169083151502179055507f62e78cea01bee320cd4e420270b5ea74000d11b0c9f74754ebdbfc544b05a258610ea1610b7a565b604051610eae9190612490565b60405180910390a1565b5f73ffffffffffffffffffffffffffffffffffffffff168273ffffffffffffffffffffffffffffffffffffffff1603610f28575f6040517fced3e100000000000000000000000000000000000000000000000000000000008152600401610f1f9190612490565b60405180910390fd5b8060015f8573ffffffffffffffffffffffffffffffffffffffff1673ffffffffffffffffffffffffffffffffffffffff1681526020019081526020015f205f8473ffffffffffffffffffffffffffffffffffffffff1673ffffffffffffffffffffffffffffffffffffffff1681526020019081526020015f205f6101000a81548160ff0219169083151502179055508173ffffffffffffffffffffffffffffffffffffffff168373ffffffffffffffffffffffffffffffffffffffff167f17307eab39ab6107e8899845ad3d59bd9653f200f220920489ca2b5937696c31836040516110149190611cc8565b60405180910390a3505050565b5f73ffffffffffffffffffffffffffffffffffffffff168473ffffffffffffffffffffffffffffffffffffffff1603611091575f6040517f57f447ce0000000000000000000000000000000000000000000000000000000081526004016110889190612490565b60405180910390fd5b5f73ffffffffffffffffffffffffffffffffffffffff168573ffffffffffffffffffffffffffffffffffffffff1603611101575f6040517f01a835140000000000000000000000000000000000000000000000000000000081526004016110f89190612490565b60405180910390fd5b5f5f61110d8585611213565b9150915061111e8787848487611127565b50505050505050565b61113385858585611284565b5f73ffffffffffffffffffffffffffffffffffffffff168473ffffffffffffffffffffffffffffffffffffffff16146111cc575f61116f610b7a565b905060018451036111bb575f61118e5f86610cea90919063ffffffff16565b90505f6111a45f86610cea90919063ffffffff16565b90506111b4838989858589611296565b50506111ca565b6111c9818787878787611445565b5b505b5050505050565b6111db61078e565b611211576040517f8dfc202b00000000000000000000000000000000000000000000000000000000815260040160405180910390fd5b565b60608060405191506001825283602083015260408201905060018152826020820152604081016040529250929050565b61124b61078e565b15611282576040517fd93c066500000000000000000000000000000000000000000000000000000000815260040160405180910390fd5b565b611290848484846115f4565b50505050565b5f8473ffffffffffffffffffffffffffffffffffffffff163b111561143d578373ffffffffffffffffffffffffffffffffffffffff1663f23a6e6187878686866040518663ffffffff1660e01b81526004016112f69594939291906129b7565b6020604051808303815f875af192505050801561133157506040513d601f19601f8201168201806040525081019061132e9190612a23565b60015b6113b2573d805f811461135f576040519150601f19603f3d011682016040523d82523d5f602084013e611364565b606091505b505f8151036113aa57846040517f57f447ce0000000000000000000000000000000000000000000000000000000081526004016113a19190612490565b60405180910390fd5b805181602001fd5b63f23a6e6160e01b7bffffffffffffffffffffffffffffffffffffffffffffffffffffffff1916817bffffffffffffffffffffffffffffffffffffffffffffffffffffffff19161461143b57846040517f57f447ce0000000000000000000000000000000000000000000000000000000081526004016114329190612490565b60405180910390fd5b505b505050505050565b5f8473ffffffffffffffffffffffffffffffffffffffff163b11156115ec578373ffffffffffffffffffffffffffffffffffffffff1663bc197c8187878686866040518663ffffffff1660e01b81526004016114a5959493929190612a4e565b6020604051808303815f875af19250505080156114e057506040513d601f19601f820116820180604052508101906114dd9190612a23565b60015b611561573d805f811461150e576040519150601f19603f3d011682016040523d82523d5f602084013e611513565b606091505b505f81510361155957846040517f57f447ce0000000000000000000000000000000000000000000000000000000081526004016115509190612490565b60405180910390fd5b805181602001fd5b63bc197c8160e01b7bffffffffffffffffffffffffffffffffffffffffffffffffffffffff1916817bffffffffffffffffffffffffffffffffffffffffffffffffffffffff1916146115ea57846040517f57f447ce0000000000000000000000000000000000000000000000000000000081526004016115e19190612490565b60405180910390fd5b505b505050505050565b6116008484848461177d565b5f73ffffffffffffffffffffffffffffffffffffffff168473ffffffffffffffffffffffffffffffffffffffff16036116c9575f5f90505f5f90505b83518110156116ae575f6116598285610cea90919063ffffffff16565b90508060045f6116728589610cea90919063ffffffff16565b81526020019081526020015f205f82825461168d9190612ae1565b9250508190555080836116a09190612ae1565b92505080600101905061163c565b508060055f8282546116c09190612ae1565b92505081905550505b5f73ffffffffffffffffffffffffffffffffffffffff168373ffffffffffffffffffffffffffffffffffffffff1603611777575f5f90505f5f90505b8351811015611765575f6117228285610cea90919063ffffffff16565b90508060045f61173b8589610cea90919063ffffffff16565b81526020019081526020015f205f8282540392505081905550808301925050806001019050611705565b508060055f8282540392505081905550505b50505050565b611785611243565b61179184848484611797565b50505050565b80518251146117e157815181516040517f5b0599910000000000000000000000000000000000000000000000000000000081526004016117d8929190612691565b60405180910390fd5b5f6117ea610b7a565b90505f5f90505b83518110156119e9575f61180e8286610cea90919063ffffffff16565b90505f6118248386610cea90919063ffffffff16565b90505f73ffffffffffffffffffffffffffffffffffffffff168873ffffffffffffffffffffffffffffffffffffffff1614611947575f5f5f8481526020019081526020015f205f8a73ffffffffffffffffffffffffffffffffffffffff1673ffffffffffffffffffffffffffffffffffffffff1681526020019081526020015f20549050818110156118f357888183856040517f03dee4c50000000000000000000000000000000000000000000000000000000081526004016118ea9493929190612b14565b60405180910390fd5b8181035f5f8581526020019081526020015f205f8b73ffffffffffffffffffffffffffffffffffffffff1673ffffffffffffffffffffffffffffffffffffffff1681526020019081526020015f2081905550505b5f73ffffffffffffffffffffffffffffffffffffffff168773ffffffffffffffffffffffffffffffffffffffff16146119dc57805f5f8481526020019081526020015f205f8973ffffffffffffffffffffffffffffffffffffffff1673ffffffffffffffffffffffffffffffffffffffff1681526020019081526020015f205f8282546119d49190612ae1565b925050819055505b50508060010190506117f1565b506001835103611aa4575f611a075f85610cea90919063ffffffff16565b90505f611a1d5f85610cea90919063ffffffff16565b90508573ffffffffffffffffffffffffffffffffffffffff168773ffffffffffffffffffffffffffffffffffffffff168473ffffffffffffffffffffffffffffffffffffffff167fc3d58168c5ae7397731d063d5bbf3d657854427343f4c083240f7aacaa2d0f628585604051611a95929190612691565b60405180910390a45050611b23565b8373ffffffffffffffffffffffffffffffffffffffff168573ffffffffffffffffffffffffffffffffffffffff168273ffffffffffffffffffffffffffffffffffffffff167f4a39dc06d4c0dbc64b70af90fd698a233a518aa5d07e595d983b8c0526c8f7fb8686604051611b1a929190612b57565b60405180910390a45b5050505050565b5f604051905090565b5f5ffd5b5f5ffd5b5f73ffffffffffffffffffffffffffffffffffffffff82169050919050565b5f611b6482611b3b565b9050919050565b611b7481611b5a565b8114611b7e575f5ffd5b50565b5f81359050611b8f81611b6b565b92915050565b5f819050919050565b611ba781611b95565b8114611bb1575f5ffd5b50565b5f81359050611bc281611b9e565b92915050565b5f5f60408385031215611bde57611bdd611b33565b5b5f611beb85828601611b81565b9250506020611bfc85828601611bb4565b9150509250929050565b611c0f81611b95565b82525050565b5f602082019050611c285f830184611c06565b92915050565b5f7fffffffff0000000000000000000000000000000000000000000000000000000082169050919050565b611c6281611c2e565b8114611c6c575f5ffd5b50565b5f81359050611c7d81611c59565b92915050565b5f60208284031215611c9857611c97611b33565b5b5f611ca584828501611c6f565b91505092915050565b5f8115159050919050565b611cc281611cae565b82525050565b5f602082019050611cdb5f830184611cb9565b92915050565b5f5ffd5b5f5ffd5b5f601f19601f8301169050919050565b7f4e487b71000000000000000000000000000000000000000000000000000000005f52604160045260245ffd5b611d2f82611ce9565b810181811067ffffffffffffffff82111715611d4e57611d4d611cf9565b5b80604052505050565b5f611d60611b2a565b9050611d6c8282611d26565b919050565b5f67ffffffffffffffff821115611d8b57611d8a611cf9565b5b611d9482611ce9565b9050602081019050919050565b828183375f83830152505050565b5f611dc1611dbc84611d71565b611d57565b905082815260208101848484011115611ddd57611ddc611ce5565b5b611de8848285611da1565b509392505050565b5f82601f830112611e0457611e03611ce1565b5b8135611e14848260208601611daf565b91505092915050565b5f60208284031215611e3257611e31611b33565b5b5f82013567ffffffffffffffff811115611e4f57611e4e611b37565b5b611e5b84828501611df0565b91505092915050565b5f60208284031215611e7957611e78611b33565b5b5f611e8684828501611bb4565b91505092915050565b5f81519050919050565b5f82825260208201905092915050565b8281835e5f83830152505050565b5f611ec182611e8f565b611ecb8185611e99565b9350611edb818560208601611ea9565b611ee481611ce9565b840191505092915050565b5f6020820190508181035f830152611f078184611eb7565b905092915050565b5f67ffffffffffffffff821115611f2957611f28611cf9565b5b602082029050602081019050919050565b5f5ffd5b5f611f50611f4b84611f0f565b611d57565b90508083825260208201905060208402830185811115611f7357611f72611f3a565b5b835b81811015611f9c5780611f888882611bb4565b845260208401935050602081019050611f75565b5050509392505050565b5f82601f830112611fba57611fb9611ce1565b5b8135611fca848260208601611f3e565b91505092915050565b5f67ffffffffffffffff821115611fed57611fec611cf9565b5b611ff682611ce9565b9050602081019050919050565b5f61201561201084611fd3565b611d57565b90508281526020810184848401111561203157612030611ce5565b5b61203c848285611da1565b509392505050565b5f82601f83011261205857612057611ce1565b5b8135612068848260208601612003565b91505092915050565b5f5f5f5f6080858703121561208957612088611b33565b5b5f61209687828801611b81565b945050602085013567ffffffffffffffff8111156120b7576120b6611b37565b5b6120c387828801611fa6565b935050604085013567ffffffffffffffff8111156120e4576120e3611b37565b5b6120f087828801611fa6565b925050606085013567ffffffffffffffff81111561211157612110611b37565b5b61211d87828801612044565b91505092959194509250565b5f5f5f5f5f60a0868803121561214257612141611b33565b5b5f61214f88828901611b81565b955050602061216088828901611b81565b945050604086013567ffffffffffffffff81111561218157612180611b37565b5b61218d88828901611fa6565b935050606086013567ffffffffffffffff8111156121ae576121ad611b37565b5b6121ba88828901611fa6565b925050608086013567ffffffffffffffff8111156121db576121da611b37565b5b6121e788828901612044565b9150509295509295909350565b5f67ffffffffffffffff82111561220e5761220d611cf9565b5b602082029050602081019050919050565b5f61223161222c846121f4565b611d57565b9050808382526020820190506020840283018581111561225457612253611f3a565b5b835b8181101561227d57806122698882611b81565b845260208401935050602081019050612256565b5050509392505050565b5f82601f83011261229b5761229a611ce1565b5b81356122ab84826020860161221f565b91505092915050565b5f5f604083850312156122ca576122c9611b33565b5b5f83013567ffffffffffffffff8111156122e7576122e6611b37565b5b6122f385828601612287565b925050602083013567ffffffffffffffff81111561231457612313611b37565b5b61232085828601611fa6565b9150509250929050565b5f81519050919050565b5f82825260208201905092915050565b5f819050602082019050919050565b61235c81611b95565b82525050565b5f61236d8383612353565b60208301905092915050565b5f602082019050919050565b5f61238f8261232a565b6123998185612334565b93506123a483612344565b805f5b838110156123d45781516123bb8882612362565b97506123c683612379565b9250506001810190506123a7565b5085935050505092915050565b5f6020820190508181035f8301526123f98184612385565b905092915050565b5f5f5f5f6080858703121561241957612418611b33565b5b5f61242687828801611b81565b945050602061243787828801611bb4565b935050604061244887828801611bb4565b925050606085013567ffffffffffffffff81111561246957612468611b37565b5b61247587828801612044565b91505092959194509250565b61248a81611b5a565b82525050565b5f6020820190506124a35f830184612481565b92915050565b6124b281611cae565b81146124bc575f5ffd5b50565b5f813590506124cd816124a9565b92915050565b5f5f604083850312156124e9576124e8611b33565b5b5f6124f685828601611b81565b9250506020612507858286016124bf565b9150509250929050565b5f5f6040838503121561252757612526611b33565b5b5f61253485828601611b81565b925050602061254585828601611b81565b9150509250929050565b5f5f5f5f5f60a0868803121561256857612567611b33565b5b5f61257588828901611b81565b955050602061258688828901611b81565b945050604061259788828901611bb4565b93505060606125a888828901611bb4565b925050608086013567ffffffffffffffff8111156125c9576125c8611b37565b5b6125d588828901612044565b9150509295509295909350565b5f602082840312156125f7576125f6611b33565b5b5f61260484828501611b81565b91505092915050565b7f4e487b71000000000000000000000000000000000000000000000000000000005f52602260045260245ffd5b5f600282049050600182168061265157607f821691505b6020821081036126645761266361260d565b5b50919050565b5f60408201905061267d5f830185612481565b61268a6020830184612481565b9392505050565b5f6040820190506126a45f830185611c06565b6126b16020830184611c06565b9392505050565b7f4e487b71000000000000000000000000000000000000000000000000000000005f52603260045260245ffd5b5f819050815f5260205f209050919050565b5f6020601f8301049050919050565b5f82821b905092915050565b5f600883026127417fffffffffffffffffffffffffffffffffffffffffffffffffffffffffffffffff82612706565b61274b8683612706565b95508019841693508086168417925050509392505050565b5f819050919050565b5f61278661278161277c84611b95565b612763565b611b95565b9050919050565b5f819050919050565b61279f8361276c565b6127b36127ab8261278d565b848454612712565b825550505050565b5f5f905090565b6127ca6127bb565b6127d5818484612796565b505050565b5f5b828110156127fb576127f05f8284016127c2565b6001810190506127dc565b505050565b601f82111561284e578282111561284d5761281a816126e5565b612823836126f7565b61282c856126f7565b6020861015612839575f90505b808301612848828403826127da565b505050505b5b505050565b5f82821c905092915050565b5f61286e5f1984600802612853565b1980831691505092915050565b5f612886838361285f565b9150826002028217905092915050565b61289f82611e8f565b67ffffffffffffffff8111156128b8576128b7611cf9565b5b6128c2825461263a565b6128cd828285612800565b5f60209050601f8311600181146128fe575f84156128ec578287015190505b6128f6858261287b565b86555061295d565b601f19841661290c866126e5565b5f5b828110156129335784890151825560018201915060208501945060208101905061290e565b86831015612950578489015161294c601f89168261285f565b8355505b6001600288020188555050505b505050505050565b5f81519050919050565b5f82825260208201905092915050565b5f61298982612965565b612993818561296f565b93506129a3818560208601611ea9565b6129ac81611ce9565b840191505092915050565b5f60a0820190506129ca5f830188612481565b6129d76020830187612481565b6129e46040830186611c06565b6129f16060830185611c06565b8181036080830152612a03818461297f565b90509695505050505050565b5f81519050612a1d81611c59565b92915050565b5f60208284031215612a3857612a37611b33565b5b5f612a4584828501612a0f565b91505092915050565b5f60a082019050612a615f830188612481565b612a6e6020830187612481565b8181036040830152612a808186612385565b90508181036060830152612a948185612385565b90508181036080830152612aa8818461297f565b90509695505050505050565b7f4e487b71000000000000000000000000000000000000000000000000000000005f52601160045260245ffd5b5f612aeb82611b95565b9150612af683611b95565b9250828201905080821115612b0e57612b0d612ab4565b5b92915050565b5f608082019050612b275f830187612481565b612b346020830186611c06565b612b416040830185611c06565b612b4e6060830184611c06565b95945050505050565b5f6040820190508181035f830152612b6f8185612385565b90508181036020830152612b838184612385565b9050939250505056fea264697066735822122079fc4ad352e341db0e369155c5161c73bc4186de0302b3541c073e0200568ecd64736f6c63430008210033697066733a2f2f516d61613654755032733970534b637a48463472775768544b556479677272447338526d595971436a50334879652f","linkReferences":{}},"methodIdentifiers":{"balanceOf(address,uint256)":"00fdd58e","balanceOfBatch(address[],uint256[])":"4e1273f4","exists(uint256)":"4f558e79","isApprovedForAll(address,address)":"e985e9c5","mint(address,uint256,uint256,bytes)":"731133e9","mintBatch(address,uint256[],uint256[],bytes)":"1f7fdffa","owner()":"8da5cb5b","pause()":"8456cb59","paused()":"5c975abb","renounceOwnership()":"715018a6","safeBatchTransferFrom(address,address,uint256[],uint256[],bytes)":"2eb2c2d6","safeTransferFrom(address,address,uint256,uint256,bytes)":"f242432a","setApprovalForAll(address,bool)":"a22cb465","setURI(string)":"02fe5305","supportsInterface(bytes4)":"01ffc9a7","totalSupply()":"18160ddd","totalSupply(uint256)":"bd85b039","transferOwnership(address)":"f2fde38b","unpause()":"3f4ba83a","uri(uint256)":"0e89341c"},"id":20}